:0410000055EF11F0A7
:08100800F76A180FF66E100ED6
:10101000F7220900F5501200280C01060C312E2091
:101020004C697672650A322E204C61626972696E73
:10103000746F00000C332E20446973706C6179006A
:101040000C496D706F73746F2056312E32000C3165
:101050002E204C696E6861730A322E20536F6E61C8
:101060007200EA6A1F0EE96EEF500EE00F0E016E7D
:10107000006A002EFED7012EFBD78F0E006E002EC9
:10108000FED70000EF2EF2D7120026B002D08C98C7
:1010900001D08C88959826B202D08C9A01D08C8A87
:1010A000959A26B402D08C9C01D08C8C959C26B647
:1010B00002D08C9E01D08C8E959E95968C869596AE
:1010C0008C961200010E255E0CE3EA6A250EE96E8D
:1010D000EF5007E0020E006E002EFED700D0EF2E7C
:1010E000F9D77EEF08F095948C94235202E18C940A
:1010F00001D08C849594640E256EE4D795968C96D9
:101100002438256E0F0E251625C026F0BEDF24508C
:101110000F0B256E266EB9DF120095988C98959A64
:101120008C9A959C8C9C959E8C9E95948C9495966F
:101130008C960F0E1F6E95DF010E116E1150030875
:1011400008E3030E266EA1DF050E1F6E8ADF112A4B
:10115000F5D7020E266E99DF116A115003080EE3CF
:10116000036A1150F2CF12F0F29E4EDF12BEF28EE1
:10117000126E236A246EB7DF112AEFD71200000E19
:101180000609CA6EFF0ECB6E94948B940C0EBD6E46
:10119000B76AB66A94928B92BA6E120012C002F0CD
:1011A00011C001F00232013202320132023201C0BA
:1011B000BEFF02320230300B006EBD50CF0B00106C
:1011C000BD6E12C002F011C001F0023201320232D3
:1011D0000132023201C0BBFF02320230300B006E1E
:1011E000BA50CF0B0010BA6E1200202C01D003D0E1
:1011F000400E216E01D0216A010E1F5C2126215074
:101200008009226E236A246E6EDF29EF09F01E50DA
:101210000C0A07E0060A0DE0070A0BE0050A0FE0DA
:1012200013D0236A010E246E5EDF020E1F6E19DFDB
:1012300010D0010E1F6E020E206ED7D70AD0236A7F
:10124000100E246E50DF05D0010E236E1EC024F058
:101250004ADF12000900F5520CE0F6CF11F0F7CF8B
:1012600012F0F5CF1EF0D3DF11C0F6FF12C0F7FF6A
:10127000F1D71200000E016EC250C30B0110C26EF6
:10128000630E006E002EFED700D0C282C2B2FED71F
:10129000C3CF11F0C4CF12F0040E016EC250C30BC5
:1012A0000110C26E630E006E002EFED700D0C28207
:1012B000C2B2FED7C3CF13F0C4CF14F0080E016E34
:1012C000C250C30B0110C26E630E006E002EFED71B
:1012D00000D0C282C2B2FED7C3CF15F0C4CF16F081
:1012E0000C0E016EC250C30B0110C26E630E006E75
:1012F000002EFED700D0C282C2B2FED7C3CF17F0F5
:10130000C4CF18F01250000807E2FF0A03E11150A1
:101310002C0802E2108001D010901450000807E25F
:10132000FF0A03E113502C0802E2108201D0109250
:10133000165203E11550C80802E2108401D010943F
:10134000185203E11750C80802E2108601D0109627
:1013500012008D8496948B9094908C9095908C82B2
:10136000959212008D8496948B9094908C80959099
:101370008C92959212008D9496948B8094908C9080
:1013800095908C829592120075DF10A203D010A464
:1013900001D0DFDF10A203D010B401D0E3DF10B220
:1013A00003D010A401D0E7DF12008D9496948B90A7
:1013B00094908C9095908C929592120010B002D0DF
:1013C00010A603D057DFC5DFF9D71200F7DF10B63C
:1013D00003D050DFD0DFFBD7E8DF0C0E116EFA0E22
:1013E0001F6E3FDE112EFBD710A603D043DFC3DFF5
:1013F000FBD7DBDF0C0E116EFA0E1F6E32DE112EE4
:10140000FBD710B403D036DFB6DFFBD7CEDF0C0E30
:10141000116EFA0E1F6E25DE112EFBD710B203D00F
:1014200029DFA9DFFBD7C1DF0C0E116EFA0E1F6E8C
:1014300018DE112EFBD74AEF0AF06FDEA0DE030E96
:10144000126E840E116EAADEC150C00B0B09C16E64
:10145000C050C00B0409C06EC08EC28095DF10B0B2
:1014600002D010A6FBD7A1DF040E116EFA0E1F6E7C
:10147000F8DD112EFBD7A2DF87DF10A0FDD710A665
:10148000FBD793DF040E116EFA0E1F6EEADD112EEC
:10149000FBD79CD793DF78DF10A0FDD710A6FBD732
:1014A00084DF93EF11F08E0E006E1BC001F01AC0A6
:1014B00002F0036A015209E102C001F0026A080E5B
:1014C000005E015202E1006A08D0D89001BE04D04B
:1014D000023601360006F9D7019E1200800ED8B2FE
:1014E0001F1A246A256A1BC023F01F50231A1A50A2
:1014F000D8B4DCD0226E006E1E50D8B4E0D0225E8C
:10150000D8B481D03DE31FC028F0288E20C027F03A
:1015100021C026F0256AD89028322732263225327B
:10152000222EF8D723AE03D02480DDD02490229041
:101530002488EA6A1D0EE96EE9D0249823BE0AD0F9
:1015400022A013D02832273226322532002AD8B4DE
:10155000C5D00BD028BE0CD0D890253626362736DD
:1015600028360006D8B4BAD0F5D7248C6BD0249C8A
:101570001BC023F01BAE02D0288EA9D0289EA7D076
:101580001EC022F01EC000F01A50225E1BC028F0C0
:10159000288E1CC027F01DC026F0256AD89028325E
:1015A000273226322532222EF8D723AE03D02482CA
:1015B0009AD024922290248AEA6A210EE96EA6D05B
:1015C000249A23BE0AD022A013D0283227322632F2
:1015D0002532002AD8B482D00BD028BE0CD0D890A7
:1015E00025362636273628360006D8B477D0F5D7E4
:1015F000248E28D0249E1FC023F01FAE02D0288E38
:1016000066D0289E64D01FC028F0288E20C027F006
:1016100021C026F023AE04D0289E248464D02494D4
:10162000256A2290EA6A1D0EE96E70D023BE1CD096
:101630001BC023F022A006D02832273226322532C2
:10164000002A4CE025AE0BD0262A09E1272A07E123
:10165000282A05E1283227322632002A3FE024BC1E
:1016600086D724BEC7D71CD0800E281A28AE04D037
:101670003AD01FC023F00AD01BC023F0285206E145
:10168000275204E1265202E1006A21D028BE08D088
:10169000D8902536263627362836002EF7D71ED086
:1016A00023AE02D0288E13D0289E11D01EC000F089
:1016B0001FC028F020C027F021C026F008D01AC093
:1016C00000F01BC028F01CC027F01DC026F028C069
:1016D00001F027C002F026C003F034D0006A016A8E
:1016E000026A036A2FD0256A261E271E281E251E81
:1016F000252A05E1262A03E1272A01E1282A24B028
:1017000015D724B256D724B48AD7B3D7EF5026269C
:1017100005E3272A03E1282AD8B42280ED52EF50AE
:10172000272603E3282AD8B42280ED52EF50EFBEDB
:1017300001D0800A2826D8B0228024B8FED624BA48
:101740003FD774D712001E50D8B4A5D02A6E2250AD
:10175000D8B4A1D02A5E05E37F0E2A26D8B09BD04C
:1017600006D0810E2A5ED8A096D0D8B494D02AC0D4
:1017700000F0016A026A036A296A1FC028F0288EF5
:1017800020C027F021C026F0190E2A6E2550265EB3
:101790000DE2010E275E0AE2285E08E2295E06E2FB
:1017A000292A282A272A2550262628D02450275E91
:1017B00012E2010E285E0FE2295E0DE2292A282A94
:1017C000245027262550262619E3272A17E1282A00
:1017D00015E1292A13D023508009285E0EE2010E5C
:1017E000295E0BE2292A2350800928262450272627
:1017F000E9E3282AE7E1292AE5D703802A2E01D048
:101800000BD0D8902636273628362936D89003367E
:10181000023601362B36BAD72BA006D0D89001322B
:10182000023203322B3202D0000635E02BBE1ED02E
:10183000D89026362736283629362550265E07E2E8
:10184000010E275E04E2285E02E2295E1AE32450BC
:10185000275E05E2010E285E02E2295E12E32350B4
:101860008009285E03E2010E295E0BE3032A09E1E9
:10187000022A07E1012A05E1002A0DE001320232C5
:1018800003321FC02AF023502A1A2AAE02D0018E3A
:1018900006D0019E04D0006A016A026A036A12003F
:1018A0001E50D8B471D0006E2250D8B46DD000262E
:1018B00004E3810E002668E204D07F0E005E64E33C
:1018C00063E01FC026F02350261A1F8E238E21505E
:1018D0002502F4CF28F020502402F4CF03F0F3CFF8
:1018E00027F02502F3502826F4502722000E032269
:1018F00021502402F3502826F4502722000E026AB9
:10190000032202221F502502F3502726F4500322FF
:10191000000E02221F502402F3500326F45002222C
:10192000000E016A012221502302F3502726F450B1
:101930000322000E0222012220502302F35003262C
:10194000F4500222000E01221F502302F3500226FF
:10195000F4500122002A01BE05D027360336023694
:1019600001360006000E27AE0AD0032A0222012209
:10197000015005E1025003E1035001E1002A26BEB7
:10198000018E26AE019E04D0006A016A026A036AD3
:101990001200146A136A126A116A186A176A166AC0
:1019A000156A196A1950020837E38A8E939E270E2A
:1019B000006E002EFED700D08A9E939E938C81AC41
:1019C000FDD7B50ECD6ECF6ACE6A938C81BCFDD7A4
:1019D000CD6ACE50CFCF03F01A6ECFCF1BF063DDB0
:1019E000D89218C01DF017C01CF016C01BF015C00F
:1019F0001AF003C021F002C020F001C01FF000C0A7
:101A00001EF06CDD03C018F002C017F001C016F024
:101A100000C015F0192AC6D718C021F017C020F051
:101A200016C01FF015C01EF0256A246A400E236EF2
:101A3000800E226E88DE03C014F002C013F001C0D5
:101A400012F000C011F014C021F013C020F012C039
:101A50001FF011C01EF0256A246A200E236E810E2D
:101A6000226E1EDF03C01DF002C01CF001C01BF07F
:101A700000C01AF003C021F002C020F001C01FF026
:101A800000C01EF0256A246A680E236E870E226E3F
:101A90005ADE1200146A136A126A116A186A176A07
:101AA000166A156A196A1950020837E38A889398EA
:101AB000270E006E002EFED700D08A989398938A46
:101AC00081AAFDD7B50ECD6ECF6ACE6A938A81BA50
:101AD000FDD7CD6ACE50CFCF03F01A6ECFCF1BF01B
:101AE000E2DCD89218C01DF017C01CF016C01BF025
:101AF00015C01AF003C021F002C020F001C01FF091
:101B000000C01EF0EBDC03C018F002C017F001C0EB
:101B100016F000C015F0192AC6D718C021F017C05A
:101B200020F016C01FF015C01EF0256A246A400E72
:101B3000236E800E226E07DE03C014F002C013F085
:101B400001C012F000C011F014C021F013C020F049
:101B500012C01FF011C01EF0256A246A200E236EE9
:101B6000810E226E9DDE03C01DF002C01CF001C07C
:101B70001BF000C01AF003C021F002C020F001C029
:101B80001FF000C01EF0256A246A680E236E870EBF
:101B9000226ED9DD1200146A136A126A116A186A79
:101BA000176A166A156A196A1950020837E38A8695
:101BB0009396270E006E002EFED700D08A9693963D
:101BC000938481A4FDD7B50ECD6ECF6ACE6A93847F
:101BD00081B4FDD7CD6ACE50CFCF03F01A6ECFCFF0
:101BE0001BF061DCD89218C01DF017C01CF016C0A5
:101BF0001BF015C01AF003C021F002C020F001C094
:101C00001FF000C01EF06ADC03C018F002C017F01D
:101C100001C016F000C015F0192AC6D718C021F06F
:101C200017C020F016C01FF015C01EF0256A246AE8
:101C3000400E236E800E226E86DD03C014F002C0BB
:101C400013F001C012F000C011F014C021F013C055
:101C500020F012C01FF011C01EF0256A246A200E69
:101C6000236E810E226E1CDE03C01DF002C01CF02C
:101C700001C01BF000C01AF003C021F002C020F028
:101C800001C01FF000C01EF0256A246A680E236E92
:101C9000870E226E58DD120012C019F01650191A64
:101CA00019AE05D0D894D89012BED8802FD012C0CB
:101CB00019F015C01AF011501A5E06E019AE26D0C0
:101CC000D850010AD86E22D016C01AF012501A5EEF
:101CD00006E019AE1BD0D850010AD86E17D017C035
:101CE0001AF013501A5E06E019AE10D0D850010A4F
:101CF000D86E0CD018C01AF014501A5E06E019AE57
:101D000005D0D850010AD86E01D0D890120041DE1B
:101D100003C007F002C006F001C005F000C004F0E7
:101D2000B9DE03C00BF002C00AF001C009F000C028
:101D300008F031DF03C00FF002C00EF001C00DF05B
:101D400000C00CF0030E126E840E116ECEEC08F083
:101D5000146A136A400E126E820E116E0BC018F0D8
:101D60000AC017F009C016F008C015F095DF20E38F
:101D7000146A136A126A820E116E07C018F006C048
:101D800017F005C016F004C015F086DF11E3146AE1
:101D9000136A126A820E116E0FC018F00EC017F08F
:101DA0000DC016F00CC015F077DF02E3A9EC09F0C6
:101DB00007C014F006C013F005C012F004C011F003
:101DC000186A176A166A820E156E66DF21E3146AB6
:101DD000136A126A820E116E0FC018F00EC017F04F
:101DE0000DC016F00CC015F057DF12E3146A136A29
:101DF000400E126E820E116E0BC018F00AC017F062
:101E000009C016F008C015F047DF02E3BBEC09F08B
:101E10000FC014F00EC013F00DC012F00CC011F082
:101E2000186A176A166A820E156E36DF21E3146A85
:101E3000136A126A820E116E07C018F006C017F0FE
:101E400005C016F004C015F027DF12E3146A136A08
:101E5000400E126E820E116E0BC018F00AC017F001
:101E600009C016F008C015F017DF02E3B2EC09F064
:101E70000BC014F00AC013F009C012F008C011F032
:101E8000186A176A600E166E820E156E05DF36E34D
:101E9000D5EC09F0640E1F6E31EC08F00FC014F0A1
:101EA0000EC013F00DC012F00CC011F007C018F0F6
:101EB00006C017F005C016F004C015F0EDDE06E30D
:101EC000B2EC09F0C80E1F6E31EC08F007C014F038
:101ED00006C013F005C012F004C011F00FC018F0D6
:101EE0000EC017F00DC016F00CC015F0D5DE06E3DD
:101EF000BBEC09F0C80E1F6E31EC08F007C014F0FF
:101F000006C013F005C012F004C011F0186A176A79
:101F1000166A820E156EC0DE11E30FC014F00EC0FB
:101F200013F00DC012F00CC011F0186A176A166A8F
:101F3000820E156EB1DE02E3D5EC09F033EF11F03D
:101F40001E50B6081E6E036A1FC022F01F8ED89066
:101F50001F322032213203320232013200321E2E71
:101F6000F6D722AE0BD0001E011E021E031E002A51
:101F7000D8B4012AD8B4022AD8B4032A2EEF10F01C
:101F8000D8B203D0EA6A260EE96E006A016A026AD4
:101F9000036A266A276A286A296A255024102310B2
:101FA00022102CE0200E2A6ED8901E361F362036C6
:101FB000213626362736283629362550295C08E171
:101FC0002450285C05E12350275C02E12250265C66
:101FD0000FE32250265E2350D8A0233C275E2450D6
:101FE000D8A0243C285E2550D8A0253C295ED88066
:101FF00000360136023603362A2ED6D726C0EFFF2A
:1020000027C0ECFF28C0ECFF29C0ECFF1200E9500C
:10201000166E1550186E19E014C021F013C020F090
:1020200012C01FF011C01EF0256A246A200E236E14
:10203000820E226E35DC03C014F002C013F001C022
:1020400012F000C011F0182EE7D714C021F013C011
:1020500020F012C01FF011C01EF072D703C014F0A0
:1020600002C013F001C012F000C011F014AE0DD088
:102070001606168A111E121E131E141E112AD8B41B
:10208000122AD8B4132AD8B4142A3B0E1D6E9A0E05
:102090001C6ECA0E1B6E1A6A0A0E186E1550D8B442
:1020A000162AD882EA6A110EE96E14C021F013C014
:1020B00020F012C01FF011C01EF01DC025F01CC082
:1020C00024F01BC023F01AC022F05ADF0150005246
:1020D0000FE11528185C0CE016500CE00F0B185C93
:1020E00001E03BE216BE39D016BC04D0200E30D041
:1020F000200E161616AA0DD0169A1550D8A416063C
:102100000050166E2D0E1E6E07EC09F01650006E74
:10211000166A1550185C0BE10050166E2E0E1E6EDE
:1021200007EC09F01650006E200E1616000E300E49
:1021300016AA0ED0169A1550D8A416060050166E80
:102140002D0E1E6E07EC09F01650006E166A300E4A
:10215000002600C01EF007EC09F0D8921DC021F047
:102160001CC020F01BC01FF01AC01EF0256A246A94
:10217000236A0A0E226E04DF03C01DF002C01CF0A9
:1021800001C01BF000C01AF0182E8BD7120001DC22
:1021900003C007F002C006F001C005F000C004F063
:1021A00079DC03C00BF002C00AF001C009F000C0E6
:1021B00008F0F1DC03C00FF002C00EF001C00DF01A
:1021C00000C00CF00C0E1E6E07EC09F0890EE96ED3
:1021D00007C014F006C013F005C012F004C011F0DF
:1021E000020E156E14DF200E1E6E07EC09F0200E95
:1021F0001E6E07EC09F0890EE96E0BC014F00AC0E0
:1022000013F009C012F008C011F0020E156EFFDEC7
:102210000A0E1E6E07EC09F0890EE96E0FC014F06D
:102220000EC013F00DC012F00CC011F0020E156EAE
:10223000EEDE640E1F6E31EC08F04AEF11F01C0E5A
:10224000F66E100EF76E2AEC09F0640E1F6E31EC7C
:1022500008F0928880B800D0928A80BA07D0928A1B
:1022600080AAFDD754D5968084B0FCD7968084B0E0
:1022700017D0340EF66E100EF76E2AEC09F0640ECD
:102280001F6E31EC08F0928880B807D0928880A841
:10229000FDD77DD7968084B0FCD7968284B2E9D7EB
:1022A000968284B2CCD79AEF11F0F86AD09E076A72
:1022B000066A056A046A0B6A0A6A096A086A0F6A8A
:1022C0000E6A0D6A0C6AC150C00B0F09C16E070E71
:1022D000B46E8DEC08F0BFEC08F0030E126EE80E41
:1022E000116ECEEC08F0400EF66E100EF76E2AEC72
:1022F00009F0080E116EFA0E1F6E31EC08F0112E67
:10230000FAD74E0EF66E100EF76E2AEC09F0140E88
:102310001F6E31EC08F0928880B805D0928880A8B2
:10232000FDD71DEF0AF0928A80BA04D0928A80AA63
:08233000FDD785D7E6D70300B5
:020000040030CA
:0E00000024CE380E0087A1000FC00FE00F4085
:00000001FF
;PIC18F4550
;CRC=9667  CREATED="22-set-17 22:13"
