:0410000078EF0DF088
:08100800046ED8CF05F0E0CF23
:1010100006F00001E9CF0CF0EACF07F0E1CF08F0CD
:10102000E2CF09F0D9CF0AF0DACF0BF0F3CF12F00C
:10103000F4CF13F0FACF14F000C00EF001C00FF09F
:1010400002C010F003C011F0F2AA2AEF08F0F2B4C7
:101050005EEF0BF00EC000F00FC001F010C002F008
:1010600011C003F00CC0E9FF07C0EAFF078E08C0FB
:10107000E1FF09C0E2FF0AC0D9FF0BC0DAFF12C0CE
:10108000F3FF13C0F4FF14C0FAFF045006C0E0FFE2
:1010900005C0D8FF1000F2CF0DF0F29EF76AB00F36
:1010A000F66E100EF7220900F5500DBEF28E1200FA
:1010B000280C0106010E465E0CE3EA6A460EE96E54
:1010C000EF5007E0020E006E002EFED700D0EF2E8C
:1010D000F9D7120047B002D08C9801D08C8895982F
:1010E00047B202D08C9A01D08C8A959A47B402D02C
:1010F0008C9C01D08C8C959C47B602D08C9E01D0E4
:101100008C8E959E95968C8695968C9612009594CD
:101110008C94445202E18C9401D08C849594640E9A
:10112000466EC8DF95968C964538466E0F0E46166D
:1011300046C047F0CFDF45500F0B466E476ECADF03
:101140001200EA6A400EE96EEF500EE00F0E016EDB
:10115000006A002EFED7012EFBD78F0E006E002EE8
:10116000FED70000EF2EF2D71200412C01D003D0A1
:10117000400E426E01D0426A010E405C422642504F
:101180008009436E446A456EC2DF12003F500C0A6C
:1011900007E0060A0DE0070A0BE0050A0FE013D08E
:1011A000446A010E456EB3DF020E406ECADF10D0F6
:1011B000010E406E020E416ED8DF0AD0446A100E56
:1011C000456EA5DF05D0010E446E3FC045F09FDFA0
:1011D00012000C0E3F6EDADF8FEF0BF00900F552B4
:1011E0000CE0F6CF36F0F7CF37F0F5CF3FF0CEDF9B
:1011F00036C0F6FF37C0F7FFF1D71200EACF3EF056
:10120000E9CF3DF037AE08D03D8E3DA83D2A361ED1
:10121000371E362AD8B4372A3738F009396E3926BE
:10122000E20F3A6E320F3C6E37500F0B3A263A26D9
:101230003C26E90F3B6E3B263B2636380F0B3B2600
:101240003C263B363C363C1E3C3636500F0B3C268B
:101250003936070E386E0A0E3B063C26FDE33A0689
:101260003B26FDE339063A26FDE338063926FDE341
:10127000EA6A380EE96E070E3D143D9CED523D14AE
:1012800007E13DB8EE523DB803D0200E006E20D0ED
:10129000E926000EEA22E9503C0803E1EA5201E1A6
:1012A0003D8CEF50006E08E13DBC06D03DB81BD030
:1012B0003DB602D0200E0BD03DAE06D02D0E006EF6
:1012C000ED503D9C3D9E04D03D863D98300E00265D
:1012D000EACF37F0E9CF36F000C03FF057DF37C034
:1012E000EAFF36C0E9FFEE503DACD5D712008E0EB6
:1012F000006E3BC001F03AC002F0036A015209E1FE
:1013000002C001F0026A080E005E015202E1006AAA
:1013100008D0D89001BE04D0023601360006F9D7B5
:10132000019E12003A50D8B4A5D0466E3E50D8B4B3
:10133000A1D0465E05E37F0E4626D8B09BD006D0EE
:10134000810E465ED8A096D0D8B494D046C000F0A6
:10135000016A026A036A456A3BC044F0448E3CC09D
:1013600043F03DC042F0190E466E4150425E0DE220
:10137000010E435E0AE2445E08E2455E06E2452A4B
:10138000442A432A4150422628D04050435E12E26C
:10139000010E445E0FE2455E0DE2452A442A4050AC
:1013A00043264150422619E3432A17E1442A15E116
:1013B000452A13D03F508009445E0EE2010E455E7F
:1013C0000BE2452A3F508009442640504326E9E37A
:1013D000442AE7E1452AE5D70380462E01D00BD009
:1013E000D8904236433644364536D89003360236D6
:1013F00001364736BAD747A006D0D890013202321C
:101400000332473202D0000635E047BE1ED0D890E6
:1014100042364336443645364150425E07E2010EBD
:10142000435E04E2445E02E2455E1AE34050435EDE
:1014300005E2010E445E02E2455E12E33F50800980
:10144000445E03E2010E455E0BE3032A09E1022A32
:1014500007E1012A05E1002A0DE0013202320332E0
:101460003BC046F03F50461A46AE02D0018E06D031
:10147000019E04D0006A016A026A036A120037C042
:101480003EF03B503E1A3EAE05D0D894D89037BEC1
:10149000D8802FD037C03EF03AC03FF036503F5E84
:1014A00006E03EAE26D0D850010AD86E22D03BC00E
:1014B0003FF037503F5E06E03EAE1BD0D850010AE9
:1014C000D86E17D03CC03FF038503F5E06E03EAECD
:1014D00010D0D850010AD86E0CD03DC03FF0395022
:1014E0003F5E06E03EAE05D0D850010AD86E01D06E
:1014F000D890120039C002F038C001F00232013237
:1015000002320132023201C0BEFF02320230300B21
:10151000006EBD50CF0B0010BD6E120039C002F03E
:1015200038C001F00232013202320132023201C00F
:10153000BBFF02320230300B006EBA50CF0B0010EE
:10154000BA6E12003650D8B471D0006E3A50D8B48A
:101550006DD0002604E3810E002668E204D07F0EE1
:10156000005E64E363E037C03EF03B503E1A378EC6
:101570003B8E39503D02F4CF40F038503C02F4CF5E
:1015800003F0F3CF3FF03D02F3504026F4503F22EA
:10159000000E032239503C02F3504026F4503F2203
:1015A000000E026A0322022237503D02F3503F260A
:1015B000F4500322000E022237503C02F35003265F
:1015C000F4500222000E016A012239503B02F3500E
:1015D0003F26F4500322000E0222012238503B0223
:1015E000F3500326F4500222000E012237503B0232
:1015F000F3500226F4500122002A01BE05D03F36E6
:101600000336023601360006000E3FAE0AD0032A2A
:1016100002220122015005E1025003E1035001E1E1
:10162000002A3EBE018E3EAE019E04D0006A016AD1
:10163000026A036A12008E0E006E3650005E37C0DA
:1016400002F038C001F0028E005209E0D890025238
:1016500002E1015204E002320132002EF7D737AE28
:1016600005D0011E021E012AD8B4022A120037C07A
:1016700002F036C001F0023201320232013202328F
:1016800001C0BEFF02320230300B006EBD50CF0BE6
:101690000010BD6E37C002F036C001F002320132D8
:1016A00002320132023201C0BBFF02320230300B83
:1016B000006EBA50CF0B0010BA6E1200222C08D068
:1016C000C282C2B2FED7C3CF18F0C4CF19F01ED069
:1016D0002250020808E1C282C2B2FED7C3CF1AF07C
:1016E000C4CF1BF013D02250030808E1C282C2B25B
:1016F000FED7C3CF1CF0C4CF1DF008D0226AC2822F
:10170000C2B2FED7C3CF1EF0C4CF1FF02050D00806
:101710001EE1215007081BE1216A206A5AD5860E76
:10172000F66E190EF76E5ADD0A0EE96E19C037F023
:1017300018C036F063DD8A0EF66E190EF76E4EDDB8
:101740000A0EE96E1BC037F01AC036F057DD202AAA
:10175000D8B4212A222A2234006E0036FC0E00164C
:10176000C250C30B0010C26E172C07D119C03BF03A
:1017700018C03AF0BCDD03C039F002C038F001C037
:1017800037F000C036F01A501824016E1B50192093
:10179000036E01C03AF03B6EAADD39C03DF038C09F
:1017A0003CF037C03BF036C03AF003C041F002C015
:1017B00040F001C03FF000C03EF0B4DD03C031F0A6
:1017C00002C030F001C02FF000C02EF01BC03BF073
:1017D0001AC03AF08CDD03C039F002C038F001C005
:1017E00037F000C036F01A501824016E1B50192033
:1017F000036E01C03AF03B6E7ADD39C03DF038C06F
:101800003CF037C03BF036C03AF003C041F002C0B4
:1018100040F001C03FF000C03EF084DD03C035F071
:1018200002C034F001C033F000C032F01A50182466
:10183000366E1B501920376E0008D8B092D0FF0AC0
:1018400004E136502C08D8B08CD0010E406E020E48
:10185000416E8BDC330E396E386E376E7E0E366E0F
:1018600031C03DF030C03CF02FC03BF02EC03AF00C
:1018700006DE0EE3900EF66E190EF76EAFDC030E69
:10188000396EB60E386E36DE396A386A47DE68D091
:10189000330E396E386E376E7E0E366E35C03DF0C3
:1018A00034C03CF033C03BF032C03AF0E8DD0EE328
:1018B000A00EF66E190EF76E91DC396A386A1ADEE0
:1018C000030E396EB60E386E29DE4AD031C039F0BB
:1018D00030C038F02FC037F02EC036F03D6A3C6A79
:1018E000480E3B6E850E3A6E2DDE03C039F002C005
:1018F00038F001C037F000C036F09DDE02C037F08E
:1019000001C036F0520E3626030E372237C039F0AA
:1019100036C038F003DE35C039F034C038F033C09B
:1019200037F032C036F03D6A3C6A480E3B6E850E99
:101930003A6E08DE03C039F002C038F001C037F05B
:1019400000C036F078DE02C037F001C036F0520E2B
:101950003626030E372237C039F036C038F0CADDDC
:101960000BD0010E406E020E416EB5EC08F0B00EC9
:10197000F66E190EF76E32DC03D0376A366A77DE00
:10198000F2942AEF08F0313A200020323A20000089
:101990004573746120612064697265697461000037
:1019A00045737461206120657371756572646100AF
:1019B0005365207065726465750020496E696369BE
:1019C000616C697A616E646F000095988C98959A45
:1019D0008C9A959C8C9C959E8C9E95948C949596B7
:1019E0008C96166AF2BE168EF29E0F0E406EA1EC19
:1019F00008F016BEF28E010E236E2350030816E384
:101A0000166AF2BE168EF29E030E476E6AEC08F05E
:101A100016BEF28E166AF2BE168EF29E050E406E4D
:101A2000A1EC08F016BEF28E232AE7D7166AF2BEA2
:101A3000168EF29E020E476E6AEC08F016BEF28E0B
:101A4000236A2350030816E3036A2350F2CF24F0DD
:101A5000F29E4BEC08F024BEF28E246E166AF2BEA3
:101A6000168EF29E446A456E87EC08F016BEF28E22
:101A7000232AE7D76AEF0DF0000E0609CA6EFF0EA3
:101A8000CB6E94948B940C0EBD6EB76AB66A94922A
:101A90008B92BA6E6BEF0DF08D8496948B90949030
:101AA0008C9095908C82959276EF0DF0010E226EBF
:101AB000176AC150C00B0B09C16EC050C00B04099E
:101AC000C06EC08EC280C00ED56ED76AD66AF28A4A
:101AD000F2127BD7D1D7166AF2BE168EF29E030E93
:101AE000376E3668C4DD16BEF28ED6D782EF0DF0A3
:101AF000F86AD09E078EC150C00B0F09C16E070E49
:101B0000B46ED4D7166AF2BE168EF29E010E406EE7
:101B1000416EB5EC08F016BEF28E166AF2BE168E55
:101B2000F29E050E406EA1EC08F016BEF28EBA0EC3
:101B3000F66E190EF76E166AF2BE168EF29EEEEC77
:101B400008F016BEF28E040E236E166AF2BE168ED2
:101B5000F29EFA0E406EA1EC08F016BEF28E232E15
:101B6000F4D7928880B802D0010E176E928A80BA9C
:081B700001D0176AF6D703004B
:020000040030CA
:0E00000024CE380E0087A1000FC00FE00F4085
:00000001FF
;PIC18F4550
;CRC=25E1  CREATED="27-ago-18 23:07"
