:0410000065EF0AF09E
:08100800046ED8CF05F0E0CF23
:1010100006F00001E9CF0CF0EACF07F0E1CF08F0CD
:10102000E2CF09F0D9CF0AF0DACF0BF0F3CF12F00C
:10103000F4CF13F0FACF14F000C00EF001C00FF09F
:1010400002C010F003C011F0F2AA2AEF08F0F2B4C7
:1010500063EF08F00EC000F00FC001F010C002F006
:1010600011C003F00CC0E9FF07C0EAFF078E08C0FB
:10107000E1FF09C0E2FF0AC0D9FF0BC0DAFF12C0CE
:10108000F3FF13C0F4FF14C0FAFF045006C0E0FFE2
:1010900005C0D8FF1000F2CF0DF0F29EF76AB00F36
:1010A000F66E100EF7220900F5500DBEF28E1200FA
:1010B000280C010620202020202020202020202075
:1010C000202020200000F2942AEF08F020496E69C9
:1010D0006369616C697A616E646F00004D61696F6C
:1010E0007220717565203933303600004D656E6FA2
:1010F000722071756520393330360000313A200096
:10110000EA6A210EE96EEF500EE00F0E016E006AE2
:10111000002EFED7012EFBD78F0E006E002EFED7BD
:101120000000EF2EF2D7120028B002D08C9801D028
:101130008C88959828B202D08C9A01D08C8A959A86
:1011400028B402D08C9C01D08C8C959C28B602D0FF
:101150008C9E01D08C8E959E95968C8695968C96BD
:101160001200010E275E0CE3EA6A270EE96EEF50CB
:1011700007E0020E006E002EFED700D0EF2EF9D74A
:10118000CDEF08F095948C94255202E18C9401D017
:101190008C849594640E276EE4D795968C962638A9
:1011A000276E0F0E271627C028F0BEDF26500F0B24
:1011B000276E286EB9DF120095988C98959A8C9AB4
:1011C000959C8C9C959E8C9E95948C9495968C96D3
:1011D0000F0E216E95DF010E1E6E1E50030808E3F0
:1011E000030E286EA1DF050E216E8ADF1E2AF5D7B9
:1011F000020E286E99DF1E6A1E5003080EE3036A72
:101200001E50F2CF1FF0F29E46DF1FBEF28E1F6E01
:10121000256A266EB7DF1E2AEFD722EF09F0010EEE
:10122000166EC150C00B0B09C16EC050C00B040933
:10123000C06EC08EC280C00ED56ED76AD66AF28AE2
:10124000F212BAD76FEF0AF0222C01D003D0400E71
:10125000236E01D0236A010E215C232623508009CE
:10126000246E256A266E8EDF120020500C0A07E0DD
:10127000060A0DE0070A0BE0050A0FE013D0256A05
:10128000010E266E7FDF020E216E3ADF10D0010EB6
:10129000216E020E226ED8DF0AD0256A100E266E4D
:1012A00071DF05D0010E256E20C026F06BDF120025
:1012B0000900F5520CE0F6CF1EF0F7CF1FF0F5CF86
:1012C00020F0D3DF1EC0F6FF1FC0F7FFF1D71200DA
:1012D000010E216E226EB8DFB40EF66E100EF76EA0
:1012E000E7DF010E216E020E226EAEDFB40EF66E47
:1012F000100EF76EDDDF7CEF0AF0016A026A006A09
:10130000036A295002E1285018E0100E2A6ED89086
:1013100026362736003603362950035C02E1285072
:10132000005C07E32850005ED8A003062950035E46
:10133000D880013602362A2EEAD712002050E96EF4
:1013400021C0EAFF1FC027F01EC026F0270E296E1D
:10135000100E286ED2DF02C025F001C024F002C0BA
:1013600027F001C026F0296A0A0E286EC6DF00C0E9
:10137000EFFF010E2024E96E000E2120EA6E1FC04F
:1013800027F01EC026F0030E296EE80E286EB5DF8A
:1013900002C025F001C024F002C027F001C026F0F1
:1013A000296A0A0E286EA9DF00C0EFFF020E202472
:1013B000E96E000E2120EA6E1FC027F01EC026F045
:1013C000296A640E286E99DF02C025F001C024F05E
:1013D00002C027F001C026F0296A0A0E286E8DDFB0
:1013E00000C0EFFF030E2024E96E000E2120EA6EFC
:1013F0001FC027F01EC026F0296A0A0E286E7DDF66
:1014000002C025F001C024F002C027F001C026F080
:10141000296A0A0E286E71DF00C0EFFF040E202437
:10142000E96E000E2120EA6E1FC027F01EC026F0D4
:10143000296A0A0E286E61DF00C0EFFF20C0E9FFB5
:1014400021C0EAFF300EEF24EF6E010E2024E96E7A
:10145000000E2120EA6E300EEF24EF6E020E2024E3
:10146000E96E000E2120EA6E300EEF24EF6E030EBF
:101470002024E96E000E2120EA6E300EEF24EF6E7C
:10148000040E2024E96E000E2120EA6E300EEF24B7
:10149000EF6E050E2024E96E000E2120EA6EEF6A41
:1014A000C4EF0AF0EF520FE0EACF1FF0E9CF1EF0D1
:1014B000EFCF20F0DADE1FC0EAFF1EC0E9FFE92A05
:1014C000D8B4EA2AEFD7C8EF0AF0F86AD09E078EA0
:1014D000C150C00B0F09C16E070EB46EA0D6010E2D
:1014E000216E226EB1DECC0EF66E100EF76EE0DECF
:1014F000140E216E05DEECD6928880B802D0010E63
:10150000166E928A80BA01D0166A010E216E226E82
:101510009BDE040E016EC250C30B0110C26E630E3F
:10152000006E002EFED700D0010E216E020E226E3C
:101530008BDE185023080BE2FF0A03E117505A080C
:1015400006E2DC0EF66E100EF76EB2DE05D0EC0E83
:10155000F66E100EF76EACDE010E216E226E74DE9A
:10156000C282C2B2FED7C3CF17F0C4CF18F0FC0EB0
:10157000F66E100EF76E9CDE18C01FF017C01EF03E
:10158000216A190E206EDAD6EA6A190EE96E8AD738
:0A159000640E216EB5DDAFD7030035
:020000040030CA
:0E00000024CE380E0087A1000FC00FE00F4085
:00000001FF
;PIC18F4550
;CRC=7944  CREATED="20-ago-18 00:19"
