:04100000F4EF08F011
:08100800F76A180FF66E100ED6
:10101000F7220900F5501200280C01060C496D70EA
:101020006F73746F2056312E32000C312E204C69B4
:101030006E6861730A322E20536F6E617200EA6A25
:10104000080EE96EEF500EE00F0E016E006A002EE2
:10105000FED7012EFBD78F0E006E002EFED70000AC
:10106000EF2EF2D712000FB002D08C9801D08C88EE
:1010700095980FB202D08C9A01D08C8A959A0FB4B1
:1010800002D08C9C01D08C8C959C0FB602D08C9E8B
:1010900001D08C8E959E95968C8695968C96120096
:1010A000010E0E5E0CE3EA6A0E0EE96EEF5007E0E9
:1010B000020E006E002EFED700D0EF2EF9D76CEF97
:1010C00008F095948C940C5202E18C9401D08C849D
:1010D0009594640E0E6EE4D795968C960D380E6E30
:1010E0000F0E0E160EC00FF0BEDF0D500F0B0E6E62
:1010F0000F6EB9DF120095988C98959A8C9A959CF2
:101100008C9C959E8C9E95948C9495968C960F0EA7
:10111000086E95DF010E056E0550030808E3030E07
:101120000F6EA1DF050E086E8ADF052AF5D7020EC5
:101130000F6E99DF056A055003080EE3036A055038
:10114000F2CF06F0F29E60DF06BEF28E066E0C6AEB
:101150000D6EB7DF052AEFD7FDEF08F0092C01D09F
:1011600003D0400E0A6E01D00A6A010E085C0A26FE
:101170000A5080090B6E0C6A0D6EA3DFE2EF08F0D7
:1011800007500C0A07E0060A0DE0070A0BE0050A03
:101190000FE013D00C6A010E0D6E93DF020E086E85
:1011A0004EDF10D0010E086E020E096ED7D70AD09E
:1011B0000C6A100E0D6E85DF05D0010E0C6E07C097
:1011C0000DF07FDFEEEF08F00900F5520CE0F6CFEE
:1011D00005F0F7CF06F0F5CF07F0D2D705C0F6FF40
:1011E00006C0F7FFF1D71200F86AD09EC150C00BBD
:1011F0000F09C16E070EB46E7ED71C0EF66E100E70
:10120000F76EE2DF080E056EFA0E086E18DF052E87
:10121000FBD72A0EF66E100EF76ED6DF140E086E90
:061220000EDFF7D703000A
:020000040030CA
:0E00000024CE380E0087A1000FC00FE00F4085
:00000001FF
;PIC18F4550
;CRC=9BB1  CREATED="02-ago-18 21:54"
