:0410000058EF0EF0A7
:08100800046ED8CF05F0E0CF23
:1010100006F00001E9CF0CF0EACF07F0E1CF08F0CD
:10102000E2CF09F0D9CF0AF0DACF0BF0F3CF12F00C
:10103000F4CF13F0FACF14F000C00EF001C00FF09F
:1010400002C010F003C011F0F2AA2AEF08F0F2B4C7
:10105000ECEF09F00EC000F00FC001F010C002F07C
:1010600011C003F00CC0E9FF07C0EAFF078E08C0FB
:10107000E1FF09C0E2FF0AC0D9FF0BC0DAFF12C0CE
:10108000F3FF13C0F4FF14C0FAFF045006C0E0FFE2
:1010900005C0D8FF1000F2CF0DF0F29EF76AB00F36
:1010A000F66E100EF7220900F5500DBEF28E1200FA
:1010B000280C0106010E535E0CE3EA6A530EE96E3A
:1010C000EF5007E0020E006E002EFED700D0EF2E8C
:1010D000F9D7120054B002D08C9801D08C88959822
:1010E00054B202D08C9A01D08C8A959A54B402D012
:1010F0008C9C01D08C8C959C54B602D08C9E01D0D7
:101100008C8E959E95968C8695968C9612009594CD
:101110008C94515202E18C9401D08C849594640E8D
:10112000536EC8DF95968C965238536E0F0E531639
:1011300053C054F0CFDF52500F0B536E546ECADFC2
:1011400012004E2C01D003D0400E4F6E01D04F6ADA
:10115000010E4D5C4F264F508009506E516A526E01
:10116000D6DF1200EA6A4D0EE96EEF500EE00F0E68
:10117000016E006A002EFED7012EFBD78F0E006E87
:10118000002EFED70000EF2EF2D712004C500C0AB2
:1011900007E0060A0DE0070A0BE0050A0FE013D08E
:1011A000516A010E526EB3DF020E4D6EDBDF10D0BE
:1011B000010E4D6E020E4E6EC4DF0AD0516A100E43
:1011C000526EA5DF05D0010E516E4CC052F09FDF6C
:1011D00012000900F5520CE0F6CF43F0F7CF44F0CF
:1011E000F5CF4CF0D3DF43C0F6FF44C0F7FFF1D793
:1011F0001200EACF4BF0E9CF4AF044AE08D04A8E55
:101200004AA84A2A431E441E432AD8B4442A4438D2
:10121000F009466E4626E20F476E320F496E445083
:101220000F0B472647264926E90F486E48264826D1
:1012300043380F0B4826492648364936491E493659
:1012400043500F0B49264636070E456E0A0E4806D8
:101250004926FDE347064826FDE346064726FDE30B
:1012600045064626FDE3EA6A450EE96E070E4A1476
:101270004A9CED524A1407E14AB8EE524AB803D0EC
:10128000200E006E20D0E926000EEA22E95049081F
:1012900003E1EA5201E14A8CEF50006E08E14ABCDA
:1012A00006D04AB81BD04AB602D0200E0BD04AAEA8
:1012B00006D02D0E006EED504A9C4A9E04D04A8600
:1012C0004A98300E0026EACF44F0E9CF43F000C040
:1012D0004CF05CDF44C0EAFF43C0E9FFEE504AAC8B
:1012E000D5D712000900F6CF44F0F7CF45F0F5CF7F
:1012F0004CF04CDF44C0F6FF45C0F7FF432EF2D759
:1013000051EF0AF04A50016A495C03E249C000F01B
:101310000CD0006A080E4B6E493600364A50005C0D
:10132000D8B0006E01364B2EF7D71200200E44A81D
:10133000300E456E43C000F043AE08D0001E002AB8
:1013400000C043F02D0E456E448E4480015043C0D2
:1013500049F0640E4A6ED6DF00C043F0300E01241F
:10136000466E43C049F00A0E4A6ECCDF300E0024B0
:10137000486E300E0124476E45C000F0300E465CCA
:1013800004E0448244BE448412D045C046F0200E9E
:10139000456E300E475C04E0448044BE448207D072
:1013A000D8A4448004E146C047F0200E466E44B401
:1013B00005D044B206D044B007D009D045C04CF0A7
:1013C000E5DE46C04CF0E2DE47C04CF0DFDE48C050
:1013D0004CF0DCDE56EF0AF0225208E1C282C2B2C3
:1013E000FED7C3CF18F0C4CF19F01FD0222C08D0DD
:1013F000C282C2B2FED7C3CF1AF0C4CF1BF015D041
:101400002250020808E1C282C2B2FED7C3CF1CF04C
:10141000C4CF1DF00AD02250030807E1C282C2B235
:10142000FED7C3CF1EF0C4CF1FF02050D00841E13B
:10143000215007083EE1216A206A010E4D6E4E6E72
:1014400080DEDA0EF66E140EF76EC3DE0A0EE96E5B
:1014500019C044F018C043F0CCDEDE0EF66E140E58
:10146000F76EB7DE0A0EE96E1BC044F01AC043F0F7
:10147000C0DE010E4D6E020E4E6E63DEE40EF66EA1
:10148000140EF76EA6DE0A0EE96E1DC044F01CC0F5
:1014900043F0AFDEE80EF66E140EF76E040E436EE8
:1014A00021D723C043F0180E446E40D7245201E0E8
:1014B000246A202AD8B4212A222A2250040801E2D0
:1014C000226A2234006E0036FC0E0016C250C30B96
:1014D0000010C26EF2942AEF08F0313A2000203258
:1014E0003A200000333A200020643A2025640000AE
:1014F00020496E696369616C697A616E646F00008E
:1015000045737461206120646972656974610000CB
:101510004573746120612065737175657264610043
:101520005365207065726465750095988C98959ADE
:101530008C9A959C8C9C959E8C9E95948C9495965B
:101540008C96166AF2BE168EF29E0F0E4D6E0ADE55
:1015500016BEF28E010E296E2950030814E3166A96
:10156000F2BE168EF29E030E546EB4DD16BEF28EDF
:10157000166AF2BE168EF29E050E4D6EF3DD16BE95
:10158000F28E292AE9D7166AF2BE168EF29E020E54
:10159000546EA0DD16BEF28E296A2950030814E3AA
:1015A000036A2950F2CF2AF0F29E75DD2ABEF28E30
:1015B0002A6E166AF2BE168EF29E516A526EA7DD30
:1015C00016BEF28E292AE9D73BEF0BF0000E060972
:1015D000CA6EFF0ECB6E94948B940C0EBD6EB76AE0
:1015E000B66A94928B92BA6E3CEF0BF02AC002F06E
:1015F00029C001F00232013202320132023201C04E
:10160000BEFF02320230300B006EBD50CF0B001017
:10161000BD6E2AC002F029C001F00232013202324E
:101620000132023201C0BBFF02320230300B006EC9
:10163000BA50CF0B0010BA6E12008D8496948B9026
:1016400094908C9095908C82959241EF0BF0010EC6
:10165000226E176EC150C00B0B09C16EC050C00B7B
:101660000409C06EC08EC280C00ED56ED76AD66A1D
:10167000F28AF2125AD7AAD7030E2A6E2968B6DF69
:10168000DCD76DEF0EF01950000821E2FF0A03E1EC
:1016900018502B081CE21B50000819E2FF0A03E156
:1016A0001A502B0814E21D50000811E2FF0A03E152
:1016B0001C502B080CE21F50000809E2FF0A03E14E
:1016C0001E502B0804E2010E016E03D002D0000E62
:1016D000016E12008E0E006E36C001F035C002F0B1
:1016E000036A015209E102C001F0026A080E005EBD
:1016F000015202E1006A08D0D89001BE04D002363F
:1017000001360006F9D7019E12003550D8B4A5D095
:10171000416E3950D8B4A1D0415E05E37F0E412619
:10172000D8B09BD006D0810E415ED8A096D0D8B458
:1017300094D041C000F0016A026A036A406A36C070
:101740003FF03F8E37C03EF038C03DF0190E416E7D
:101750003C503D5E0DE2010E3E5E0AE23F5E08E255
:10176000405E06E2402A3F2A3E2A3C503D2628D0D1
:101770003B503E5E12E2010E3F5E0FE2405E0DE224
:10178000402A3F2A3B503E263C503D2619E33E2A44
:1017900017E13F2A15E1402A13D03A5080093F5EF5
:1017A0000EE2010E405E0BE2402A3A5080093F26CD
:1017B0003B503E26E9E33F2AE7E1402AE5D7038094
:1017C000412E01D00BD0D8903D363E363F364036C4
:1017D000D8900336023601364236BAD742A006D038
:1017E000D890013202320332423202D0000635E094
:1017F00042BE1ED0D8903D363E363F3640363C5035
:101800003D5E07E2010E3E5E04E23F5E02E2405EA4
:101810001AE33B503E5E05E2010E3F5E02E2405E8F
:1018200012E33A5080093F5E03E2010E405E0BE393
:10183000032A09E1022A07E1012A05E1002A0DE055
:1018400001320232033236C041F03A50411A41AE01
:1018500002D0018E06D0019E04D0006A016A026A9D
:10186000036A120032C039F03650391A39AE05D049
:10187000D894D89032BED8802FD032C039F035C03D
:101880003AF031503A5E06E039AE26D0D850010A1F
:10189000D86E22D036C03AF032503A5E06E039AE09
:1018A0001BD0D850010AD86E17D037C03AF0335049
:1018B0003A5E06E039AE10D0D850010AD86E0CD08E
:1018C00038C03AF034503A5E06E039AE05D0D85010
:1018D000010AD86E01D0D890120034C002F033C093
:1018E00001F00232013202320132023201C0BEFF87
:1018F00002320230300B006EBD50CF0B0010BD6EB7
:10190000120034C002F033C001F002320132023260
:101910000132023201C0BBFF02320230300B006ED6
:10192000BA50CF0B0010BA6E12003150D8B471D03B
:10193000006E3550D8B46DD0002604E3810E002629
:1019400068E204D07F0E005E64E363E032C039F0E9
:101950003650391A328E368E34503802F4CF3BF07E
:1019600033503702F4CF03F0F3CF3AF03802F3509C
:101970003B26F4503A22000E032234503702F35033
:101980003B26F4503A22000E026A03220222325011
:101990003802F3503A26F4500322000E022232504D
:1019A0003702F3500326F4500222000E016A01228E
:1019B00034503602F3503A26F4500322000E02222D
:1019C000012233503602F3500326F4500222000E57
:1019D000012232503602F3500226F4500122002A2E
:1019E00001BE05D03A360336023601360006000E37
:1019F0003AAE0AD0032A02220122015005E1025028
:101A000003E1035001E1002A39BE018E39AE019E87
:101A100004D0006A016A026A036A12008E0E006E28
:101A20003150005E32C002F033C001F0028E00522D
:101A300009E0D890025202E1015204E00232013280
:101A4000002EF7D732AE05D0011E021E012AD8B4EF
:101A5000022A12001BC036F01AC035F03BDE03C06C
:101A600034F002C033F001C032F000C031F01C503D
:101A70001A24016E1D501B20036E01C035F0366E16
:101A800029DE34C038F033C037F032C036F031C010
:101A900035F003C03CF002C03BF001C03AF000C09A
:101AA00039F033DE03C02CF002C02BF001C02AF065
:101AB00000C029F01DC036F01CC035F00BDE03C09D
:101AC00034F002C033F001C032F000C031F01C50DD
:101AD0001A24016E1D501B20036E01C035F0366EB6
:101AE000F9DD34C038F033C037F032C036F031C0E1
:101AF00035F003C03CF002C03BF001C03AF000C03A
:101B000039F003DE03C030F002C02FF001C02EF028
:101B100000C02DF01C501A24316E1D501B20326E57
:101B20000008D8B0ABD0FF0A04E131509008D8B01B
:101B3000A5D0166AF2BE168EF29E010E4D6E020EF2
:101B40004E6EA1EC08F016BEF28E28C034F027C00D
:101B500033F026C032F025C031F02CC038F02BC055
:101B600037F02AC036F029C035F07CDE15E3000ED0
:101B7000F66E150EF76E166AF2BE168EF29EE9EC40
:101B800008F016BEF28E030E346EE80E336EA5DE3C
:101B9000346A336AB6DE71D028C034F027C033F01F
:101BA00026C032F025C031F030C038F02FC037F0F9
:101BB0002EC036F02DC035F055DE15E3100EF66E52
:101BC000150EF76E166AF2BE168EF29EE9EC08F05C
:101BD00016BEF28E346A336A80DE030E346EE80E6F
:101BE000336E8FDE4AD02CC034F02BC033F02AC0C5
:101BF00032F029C031F0386A376A480E366E850EE9
:101C0000356E93DE03C034F002C033F001C032F011
:101C100000C031F003DF02C032F001C031F0520EDB
:101C20003126030E322232C034F031C033F069DE87
:101C300030C034F02FC033F02EC032F02DC031F060
:101C4000386A376A480E366E850E356E6EDE03C012
:101C500034F002C033F001C032F000C031F0DEDEFB
:101C600002C032F001C031F0520E3126030E322292
:101C700032C034F031C033F030DE18D0166AF2BE14
:101C8000168EF29E010E4D6E020E4E6EA1EC08F005
:101C900016BEF28E200EF66E150EF76E166AF2BEA6
:101CA000168EF29EE9EC08F016BEF28EB5EF0EF03D
:101CB000F86AD09E078E216A010E206E236A246A7C
:101CC000330E286E276E266E7E0E256EC150C00B19
:101CD0000F09C16E070EB46EBAD4166AF2BE168E24
:101CE000F29E010E4D6E4E6EA1EC08F016BEF28E05
:101CF000166AF2BE168EF29E050E4D6EB2EC08F01C
:101D000016BEF28EF00EF66E140EF76E166AF2BE66
:101D1000168EF29EE9EC08F016BEF28E040E296EC5
:101D2000166AF2BE168EF29EFA0E4D6EB2EC08F0F6
:101D300016BEF28E292EF4D7928880B802D0010EFA
:101D4000176E928A80BA01D0176A235207E19BDC92
:101D5000015203E0232A010E246E2DD0232C10D033
:101D600024520EE1172C02D075D603D02A6A296AB4
:101D70003DDC89DC015203E0232A010E246E1BD0D6
:101D80002350020818E1245216E12A6A296A2EDC3F
:101D9000080E296E166AF2BE168EF29EFA0E4D6E6F
:101DA000B2EC08F016BEF28E292EF4D7030E2A6E7E
:101DB000840E296E1BDC166AF2BE168EF29EC80EC9
:0E1DC0004D6EB2EC08F016BEF28EB6D70300E0
:020000040030CA
:0E00000024CE380E0087A1000FC00FE00F4085
:00000001FF
;PIC18F4550
;CRC=97C6  CREATED="28-ago-18 07:52"
