:04100000F5EF0FF009
:08100800046ED8CF05F0E0CF23
:1010100006F00001E9CF0CF0EACF07F0E1CF08F0CD
:10102000E2CF09F0D9CF0AF0DACF0BF0F3CF12F00C
:10103000F4CF13F0FACF14F000C00EF001C00FF09F
:1010400002C010F003C011F0F2AA2AEF08F0F2B4C7
:10105000ACEF0CF00EC000F00FC001F010C002F0B9
:1010600011C003F00CC0E9FF07C0EAFF078E08C0FB
:10107000E1FF09C0E2FF0AC0D9FF0BC0DAFF12C0CE
:10108000F3FF13C0F4FF14C0FAFF045006C0E0FFE2
:1010900005C0D8FF1000F2CF0DF0F29EF76AB00F36
:1010A000F66E100EF7220900F5500DBEF28E1200FA
:1010B000280C010620202020202020202020202075
:1010C000202020200000010E3E5E0CE3EA6A3E0E66
:1010D000E96EEF5007E0020E006E002EFED700D042
:1010E000EF2EF9D712003FB002D08C9801D08C8837
:1010F00095983FB202D08C9A01D08C8A959A3FB4D1
:1011000002D08C9C01D08C8C959C3FB602D08C9EDA
:1011100001D08C8E959E95968C8695968C96120015
:1011200095948C943C5202E18C9401D08C849594DB
:10113000640E3E6EC8DF95968C963D383E6E0F0E5F
:101140003E163EC03FF0CFDF3D500F0B3E6E3F6E70
:10115000CADF1200392C01D003D0400E3A6E01D004
:101160003A6A010E385C3A263A5080093B6E3C6A76
:101170003D6ED6DF1200EA6A380EE96EEF500EE0DF
:101180000F0E016E006A002EFED7012EFBD78F0EC8
:10119000006E002EFED70000EF2EF2D7120037505F
:1011A0000C0A07E0060A0DE0070A0BE0050A0FE04B
:1011B00013D03C6A010E3D6EB3DF020E386EDBDFEA
:1011C00010D0010E386E020E396EC4DF0AD03C6AB0
:1011D000100E3D6EA5DF05D0010E3C6E37C03DF010
:1011E0009FDF12000900F5520CE0F6CF2EF0F7CF8A
:1011F0002FF0F5CF37F0D3DF2EC0F6FF2FC0F7FF6B
:10120000F1D71200010E386E396EA4DFB40EF66EFF
:10121000100EF76EE7DF010E386E020E396E9ADFA0
:10122000B40EF66E100EF76EDDDF0EEF0DF0EACFA6
:1012300036F0E9CF35F02FAE08D0358E35A8352AF7
:101240002E1E2F1E2E2AD8B42F2A2F38F009316EC9
:101250003126E20F326E320F346E2F500F0B3226D2
:1012600032263426E90F336E332633262E380F0B01
:101270003326342633363436341E34362E500F0B94
:1012800034263136070E306E0A0E33063426FDE35F
:1012900032063326FDE331063226FDE330063126E1
:1012A000FDE3EA6A300EE96E070E3514359CED5207
:1012B000351407E135B8EE5235B803D0200E006E74
:1012C00020D0E926000EEA22E950340803E1EA5270
:1012D00001E1358CEF50006E08E135BC06D035B821
:1012E0001BD035B602D0200E0BD035AE06D02D0E59
:1012F000006EED50359C359E04D035863598300E05
:101300000026EACF2FF0E9CF2EF000C037F047DFFC
:101310002FC0EAFF2EC0E9FFEE5035ACD5D7120042
:101320008E0E006E33C001F032C002F0036A01522B
:1013300009E102C001F0026A080E005E015202E1FA
:10134000006A08D0D89001BE04D0023601360006EB
:10135000F9D7019E12003250D8B4A5D03E6E365057
:10136000D8B4A1D03E5E05E37F0E3E26D8B09BD018
:1013700006D0810E3E5ED8A096D0D8B494D03EC0A0
:1013800000F0016A026A036A3D6A33C03CF03C8E99
:1013900034C03BF035C03AF0190E3E6E39503A5E1B
:1013A0000DE2010E3B5E0AE23C5E08E23D5E06E2B3
:1013B0003D2A3C2A3B2A39503A2628D038503B5EF9
:1013C00012E2010E3C5E0FE23D5E0DE23D2A3C2A38
:1013D00038503B2639503A2619E33B2A17E13C2A7C
:1013E00015E13D2A13D0375080093C5E0EE2010E14
:1013F0003D5E0BE23D2A375080093C2638503B26A3
:10140000E9E33C2AE7E13D2AE5D703803E2E01D0FF
:101410000BD0D8903A363B363C363D36D890033622
:10142000023601363F36BAD73FA006D0D8900132F7
:10143000023203323F3202D0000635E03FBE1ED0FA
:10144000D8903A363B363C363D3639503A5E07E264
:10145000010E3B5E04E23C5E02E23D5E1AE3385060
:101460003B5E05E2010E3C5E02E23D5E12E3375058
:1014700080093C5E03E2010E3D5E0BE3032A09E1B5
:10148000022A07E1012A05E1002A0DE001320232B9
:10149000033233C03EF037503E1A3EAE02D0018ECA
:1014A00006D0019E04D0006A016A026A036A120033
:1014B000800ED8B2371A3C6A3D6A33C03BF03750D1
:1014C0003B1A3250D8B4DCD03A6E006E3650D8B4E5
:1014D000E0D03A5ED8B481D03DE337C040F0408ED2
:1014E00038C03FF039C03EF03D6AD89040323F32BC
:1014F0003E323D323A2EF8D73BAE03D03C80DDD0B1
:101500003C903A903C88EA6A350EE96EE9D03C9806
:101510003BBE0AD03AA013D040323F323E323D3279
:10152000002AD8B4C5D00BD040BE0CD0D8903D36E0
:101530003E363F3640360006D8B4BAD0F5D73C8C9C
:101540006BD03C9C33C03BF033AE02D0408EA9D070
:10155000409EA7D036C03AF036C000F032503A5E16
:1015600033C040F0408E34C03FF035C03EF03D6A9D
:10157000D89040323F323E323D323A2EF8D73BAE21
:1015800003D03C829AD03C923A903C8AEA6A390E67
:10159000E96EA6D03C9A3BBE0AD03AA013D04032A6
:1015A0003F323E323D32002AD8B482D00BD040BE0A
:1015B0000CD0D8903D363E363F3640360006D8B483
:1015C00077D0F5D73C8E28D03C9E37C03BF037AE65
:1015D00002D0408E66D0409E64D037C040F0408E2E
:1015E00038C03FF039C03EF03BAE04D0409E3C8452
:1015F00064D03C943D6A3A90EA6A350EE96E70D048
:101600003BBE1CD033C03BF03AA006D040323F3244
:101610003E323D32002A4CE03DAE0BD03E2A09E17D
:101620003F2A07E1402A05E140323F323E32002A9C
:101630003FE03CBC86D73CBEC7D71CD0800E401ACA
:1016400040AE04D03AD037C03BF00AD033C03BF0B4
:10165000405206E13F5204E13E5202E1006A21D0CD
:1016600040BE08D0D8903D363E363F364036002E3C
:10167000F7D71ED03BAE02D0408E13D0409E11D083
:1016800036C000F037C040F038C03FF039C03EF0FF
:1016900008D032C000F033C040F034C03FF035C055
:1016A0003EF040C001F03FC002F03EC003F034D035
:1016B000006A016A026A036A2FD03D6A3E1E3F1E1D
:1016C000401E3D1E3D2A05E13E2A03E13F2A01E17D
:1016D000402A3CB015D73CB256D73CB48AD7B3D7D2
:1016E000EF503E2605E33F2A03E1402AD8B43A8072
:1016F000ED52EF503F2603E3402AD8B43A80ED5232
:10170000EF50EFBE01D0800A4026D8B03A803CB8F6
:10171000FED63CBA3FD774D7120033C03AF03750E8
:101720003A1A3AAE05D0D894D89033BED8802FD08C
:1017300033C03AF036C03BF032503B5E06E03AAE82
:1017400026D0D850010AD86E22D037C03BF0335093
:101750003B5E06E03AAE1BD0D850010AD86E17D0D7
:1017600038C03BF034503B5E06E03AAE10D0D85063
:10177000010AD86E0CD039C03BF035503B5E06E014
:101780003AAE05D0D850010AD86E01D0D8901200D8
:1017900031C002F030C001F00232013202320132B7
:1017A000023201C0BBFF02320230300B006EBA5071
:1017B000CF0B0010BA6E12003250D8B471D0006E48
:1017C0003650D8B46DD0002604E3810E002668E2BE
:1017D00004D07F0E005E64E363E033C03AF037501C
:1017E0003A1A338E378E35503902F4CF3CF03450EC
:1017F0003802F4CF03F0F3CF3BF03902F3503C262C
:10180000F4503B22000E032235503802F3503C26A0
:10181000F4503B22000E026A0322022233503902A6
:10182000F3503B26F4500322000E022233503802BC
:10183000F3500326F4500222000E016A01223550B3
:101840003702F3503B26F4500322000E02220122FD
:1018500034503702F3500326F4500222000E0122C6
:1018600033503702F3500226F4500122002A01BE01
:1018700005D03B360336023601360006000E3BAE7D
:101880000AD0032A02220122015005E1025003E19D
:10189000035001E1002A3ABE018E3AAE019E04D007
:1018A000006A016A026A036A12008E0E006E2E50F0
:1018B000005E2FC002F030C001F0028E005209E03D
:1018C000D890025202E1015204E002320132002EAD
:1018D000F7D72FAE05D0011E021E012AD8B4022A66
:1018E000120031C002F030C001F002320132023287
:1018F0000132023201C0BEFF02320230300B006EF4
:10190000BD50CF0B0010BD6E12002FC002F02EC0D4
:1019100001F00232013202320132023201C0BEFF56
:1019200002320230300B006EBD50CF0B0010BD6E86
:101930002FC002F02EC001F0023201320232013219
:10194000023201C0BBFF02320230300B006EBA50CF
:10195000CF0B0010BA6E1200172C9AD2000E016E37
:10196000C250C30B0110C26E630E006E002EFED774
:1019700000D0C282C2B2FED7C3CF18F0C4CF19F0D4
:10198000040E016EC250C30B0110C26E630E006ED6
:10199000002EFED700D0C282C2B2FED7C3CF1AF04B
:1019A000C4CF1BF0080E016EC250C30B0110C26EF3
:1019B000630E006E002EFED700D0C282C2B2FED7E8
:1019C000C3CF1CF0C4CF1DF00C0E016EC250C30B70
:1019D0000110C26E630E006E002EFED700D0C282D0
:1019E000C2B2FED7C3CF1EF0C4CF1FF0010E222417
:1019F0002E6E2E34006E0036FC0E0016C250C30B45
:101A00000010C26E2050D008D8A43ED22150070842
:101A1000D8A43AD2216A206A02EF09F0010E386E8A
:101A2000396EAAEC08F0960EF66E1E0EF76EF2EC0A
:101A300008F00A0EE96E19C02FF018C02EF017EC4E
:101A400009F09A0EF66E1E0EF76EF2EC08F00A0E12
:101A5000E96E1BC02FF01AC02EF017EC09F0010E32
:101A6000386E020E396EAAEC08F0A00EF66E1E0E4D
:101A7000F76EF2EC08F00A0EE96E1DC02FF01CC0E4
:101A80002EF017EC09F0A40EF66E1E0EF76EF2ECB7
:101A900008F00A0EE96E1FC02FF01EC02EF017ECE2
:101AA00009F01A5018242E6E1B5019202F6E0208B0
:101AB000D8B0E7D1FF0A04E12E50E808D8B0E1D150
:101AC00019C033F018C032F02BDC03C031F002C073
:101AD00030F001C02FF000C02EF019C033F018C054
:101AE00032F01EDC31C035F030C034F02FC033F09E
:101AF0002EC032F003C039F002C038F001C037F018
:101B000000C036F028DC03C031F002C030F001C064
:101B10002FF000C02EF01BC033F01AC032F000DCF2
:101B2000D89231C035F030C034F02FC033F02EC021
:101B300032F003C039F002C038F001C037F000C005
:101B400036F0B6DC03C031F002C030F001C02FF037
:101B500000C02EF003C035F002C034F001C033F0F5
:101B600000C032F08F0E396EC20E386E750E376EB1
:101B70007D0E366ED2DDD8A08DD0030E316E30686A
:101B800007DE1BC033F01AC032F090EC09F003C03E
:101B900031F002C030F001C02FF000C02EF019C0AB
:101BA00033F018C032F090EC09F031C035F030C09D
:101BB00034F02FC033F02EC032F003C039F002C031
:101BC00038F001C037F000C036F0ABEC09F003C0CC
:101BD00031F002C030F001C02FF000C02EF01BC069
:101BE00033F01AC032F090EC09F0D89231C035F0E1
:101BF00030C034F02FC033F02EC032F003C039F0C3
:101C000002C038F001C037F000C036F051DC03C02C
:101C100031F002C030F001C02FF000C02EF003C040
:101C200035F002C034F001C033F000C032F0396A40
:101C3000386A0C0E376E850E366EBEDD03C031F08D
:101C400002C030F001C02FF000C02EF0D89203C0C7
:101C500035F002C034F001C033F000C032F0396A10
:101C6000800E386E6D0E376E880E366E21DC03C026
:101C700031F002C030F001C02FF000C02EF015DEB0
:101C800002C02FF001C02EF002C031F001C030F0D0
:101C900028DEF6D01BC033F01AC032F090EC09F009
:101CA00003C031F002C030F001C02FF000C02EF0B0
:101CB00019C033F018C032F090EC09F031C035F0A3
:101CC00030C034F02FC033F02EC032F003C039F0F2
:101CD00002C038F001C037F000C036F0ABEC09F0BC
:101CE00003C031F002C030F001C02FF000C02EF070
:101CF0001BC033F01AC032F090EC09F0D89231C01A
:101D000035F030C034F02FC033F02EC032F003C0B5
:101D100039F002C038F001C037F000C036F058EC9E
:101D20000AF003C031F002C030F001C02FF000C053
:101D30002EF003C035F002C034F001C033F000C013
:101D400032F08F0E396EC20E386E750E376E7D0E04
:101D5000366EE3DCD8A08FD0030E316E3068C1DD63
:101D600019C033F018C032F090EC09F003C031F024
:101D700002C030F001C02FF000C02EF019C033F0C7
:101D800018C032F090EC09F031C035F030C034F0BA
:101D90002FC033F02EC032F003C039F002C038F04B
:101DA00001C037F000C036F0ABEC09F003C031F0F1
:101DB00002C030F001C02FF000C02EF01BC033F085
:101DC0001AC032F090EC09F0D89231C035F030C032
:101DD00034F02FC033F02EC032F003C039F002C00F
:101DE00038F001C037F000C036F058EC0AF003C0FC
:101DF00031F002C030F001C02FF000C02EF003C05F
:101E000035F002C034F001C033F000C032F0396A5E
:101E1000386A0C0E376E850E366ECEDC03C031F09C
:101E200002C030F001C02FF000C02EF0D89203C0E5
:101E300035F002C034F001C033F000C032F0396A2E
:101E4000800E386E6D0E376E880E366E58EC0AF0C6
:101E500003C031F002C030F001C02FF000C02EF0FE
:101E600024DD02C02FF001C02EF002C031F001C00D
:101E700030F08EDC05D0030E2F6EE80E2E6E45DDA1
:101E800003D02F6A2E6A41DD202AD8B4212A222AC3
:101E9000F2942AEF08F0313A200020323A20000074
:101EA000333A200020343A20000020496E696369EB
:101EB000616C697A616E646F00004672656E74656C
:101EC000000095988C98959A8C9A959C8C9C959EE0
:101ED0008C9E95948C9495968C96166AF2BE168E6E
:101EE000F29E0F0E386EBBEC08F016BEF28E010E9D
:101EF000236E2350030816E3166AF2BE168EF29E76
:101F0000030E3F6E73EC08F016BEF28E166AF2BE38
:101F1000168EF29E050E386EBBEC08F016BEF28EE1
:101F2000232AE7D7166AF2BE168EF29E020E3F6E85
:101F300073EC08F016BEF28E236A2350030816E3F2
:101F4000036A2350F2CF24F0F29E4BEC08F024BE3B
:101F5000F28E246E166AF2BE168EF29E3C6A3D6EBA
:101F600090EC08F016BEF28E232AE7D7E6EF0FF0CA
:101F7000000E0609CA6EFF0ECB6E94948B940C0E65
:101F8000BD6EB76AB66A94928B92BA6EE7EF0FF0A5
:101F90008D8496948B9094908C9095908C82959251
:101FA000F3EF0FF0010E226E176EC150C00B0B093C
:101FB000C16EC050C00B0409C06EC08EC280C00E7E
:101FC000D56ED76AD66AF28AF2127BD7D1D7166A53
:101FD000F2BE168EF29E030E2F6E840E2E6E95DCD0
:101FE00016BEF28ED5D7FFEF0FF0F86AD09E078E9F
:101FF000C150C00B0F09C16E070EB46ED3D7166A5D
:10200000F2BE168EF29E010E386E396EAAEC08F002
:1020100016BEF28EAA0EF66E1E0EF76E166AF2BE8F
:10202000168EF29EF2EC08F016BEF28E040E236EAF
:10203000166AF2BE168EF29EFA0E386EBBEC08F0EF
:1020400016BEF28E232EF4D7928880B824D0010ECB
:10205000176E166AF2BE168EF29E010E386E396E3B
:10206000AAEC08F016BEF28EBA0EF66E1E0EF76ED1
:10207000166AF2BE168EF29EF2EC08F016BEF28ED2
:10208000166AF2BE168EF29E030E2F6EE80E2E6EAC
:102090003CDC16BEF28E928A80BA01D0176AD4D781
:0220A00003003B
:020000040030CA
:0E00000024CE380E0087A1000FC00FE00F4085
:00000001FF
;PIC18F4550
;CRC=B657  CREATED="23-ago-18 23:20"
