:0410000099EF0AF06A
:08100800046ED8CF05F0E0CF23
:1010100006F00001E9CF0CF0EACF07F0E1CF08F0CD
:10102000E2CF09F0D9CF0AF0DACF0BF0F3CF12F00C
:10103000F4CF13F0FACF14F000C00EF001C00FF09F
:1010400002C010F003C011F0F2AA2AEF08F0F2B4C7
:10105000A2EF08F00EC000F00FC001F010C002F0C7
:1010600011C003F00CC0E9FF07C0EAFF078E08C0FB
:10107000E1FF09C0E2FF0AC0D9FF0BC0DAFF12C0CE
:10108000F3FF13C0F4FF14C0FAFF045006C0E0FFE2
:1010900005C0D8FF1000F2CF0DF0F29EF76AB00F36
:1010A000F66E100EF7220900F5500DBEF28E1200FA
:1010B000280C0106D8B203D0EA6A3B0EE96E006A3A
:1010C000016A026A036A3B6A3C6A3D6A3E6A3A50B8
:1010D0003910381037102CE0200E3F6ED890333680
:1010E0003436353636363B363C363D363E363A506B
:1010F0003E5C08E139503D5C05E138503C5C02E162
:1011000037503B5C0FE337503B5E3850D8A0383C3B
:101110003C5E3950D8A0393C3D5E3A50D8A03A3CAC
:101120003E5ED88000360136023603363F2ED6D7D3
:101130003BC0EFFF3CC0ECFF3DC0ECFF3EC0ECFF0E
:10114000BFEF08F01C5208E0010E1826D8B0192A8B
:10115000D8B41A2AD8B41B2AD882EA6A2F0EE96EAC
:101160001BC036F01AC035F019C034F018C033F087
:101170003A6A396A030E386EE80E376E9BD732C072
:1011800036F031C035F030C034F02FC033F0335278
:1011900009E1345207E1355205E1365203E1162ADE
:1011A000D8B4172AF2942AEF08F020496E696369CF
:1011B000616C697A616E646F0000EA6A250EE96EFF
:1011C000EF500EE00F0E016E006A002EFED7012ECA
:1011D000FBD78F0E006E002EFED70000EF2EF2D749
:1011E00012002CB002D08C9801D08C8895982CB22B
:1011F00002D08C9A01D08C8A959A2CB402D08C9C07
:1012000001D08C8C959C2CB602D08C9E01D08C8EFB
:10121000959E95968C8695968C961200010E2B5E67
:101220000CE3EA6A2B0EE96EEF5007E0020E006E47
:10123000002EFED700D0EF2EF9D72AEF09F09594B3
:101240008C94295202E18C9401D08C849594640E84
:101250002B6EE4D795968C962A382B6E0F0E2B1694
:101260002BC02CF0BEDF2A500F0B2B6E2C6EB9DF7B
:10127000120095988C98959A8C9A959C8C9C959E2A
:101280008C9E95948C9495968C960F0E256E95DF7A
:10129000010E226E2250030808E3030E2C6EA1DF1C
:1012A000050E256E8ADF222AF5D7020E2C6E99DFF5
:1012B000226A225003080EE3036A2250F2CF23F081
:1012C000F29EE9DE23BEF28E236E296A2A6EB7DF14
:1012D000222AEFD7B1EF0AF0262C01D003D0400E1E
:1012E000276E01D0276A010E255C2726275080092A
:1012F000286E296A2A6EA3DF120024500C0A07E028
:10130000060A0DE0070A0BE0050A0FE013D0296A70
:10131000010E2A6E94DF020E256E4FDF10D0010EF3
:10132000256E020E266ED8DF0AD0296A100E2A6EAC
:1013300086DF05D0010E296E24C02AF080DF12005E
:101340000900F5520CE0F6CF22F0F7CF23F0F5CFED
:1013500024F0D3DF22C0F6FF23C0F7FFF1D7BAEFA6
:101360000AF0016A026A006A036A2D5002E12C50F9
:1013700018E0100E2E6ED8902A362B360036033623
:101380002D50035C02E12C50005C07E32C50005E02
:10139000D8A003062D50035ED880013602362E2ECB
:1013A000EAD712002450E96E25C0EAFF23C02BF0D3
:1013B00022C02AF0270E2D6E100E2C6ED2DF02C036
:1013C00029F001C028F002C02BF001C02AF02D6ADC
:1013D0000A0E2C6EC6DF00C0EFFF010E2424E96E5A
:1013E000000E2520EA6E23C02BF022C02AF0030E47
:1013F0002D6EE80E2C6EB5DF02C029F001C028F07A
:1014000002C02BF001C02AF02D6A0A0E2C6EA9DF53
:1014100000C0EFFF020E2424E96E000E2520EA6EC4
:1014200023C02BF022C02AF02D6A640E2C6E99DFA7
:1014300002C029F001C028F002C02BF001C02AF040
:101440002D6A0A0E2C6E8DDF00C0EFFF030E2424E0
:10145000E96E000E2520EA6E23C02BF022C02AF090
:101460002D6A0A0E2C6E7DDF02C029F001C028F023
:1014700002C02BF001C02AF02D6A0A0E2C6E71DF1B
:1014800000C0EFFF040E2424E96E000E2520EA6E52
:1014900023C02BF022C02AF02D6A0A0E2C6E61DFC9
:1014A00000C0EFFF24C0E9FF25C0EAFF300EEF24A3
:1014B000EF6E010E2424E96E000E2520EA6E300E38
:1014C000EF24EF6E020E2424E96E000E2520EA6E52
:1014D000300EEF24EF6E030E2424E96E000E25205B
:1014E000EA6E300EEF24EF6E040E2424E96E000E37
:1014F0002520EA6E300EEF24EF6E050E2424E96EEF
:10150000000E2520EA6EEF6ADDEF0AF0EF520FE0E1
:10151000EACF23F0E9CF22F0EFCF24F0EEDE23C0B4
:10152000EAFF22C0E9FFE92AD8B4EA2AEFD7E1EFBF
:101530000AF0F86AD09E078EC150C00B0F09C16E29
:10154000070EB46E176A166A1B6A1A6A196A186A55
:10155000010E1C6EC00ED56ED76AD66AF28AF212E0
:1015600088D6010E256E266EB7DEAA0EF66E110E17
:10157000F76EE6D6140E256E20DE010E256E266E61
:10158000ABDE928880B802D0010E1C6E928A80BABF
:1015900001D01C6A010E256E020E266E9DDE430EE2
:1015A000246EABDE3A0E246EA8DE17C023F016C000
:1015B00022F0256A1D0E246EF5D6EA6A1D0EE96E2C
:0C15C000A5D7640E256EF9DDD8D7030016
:020000040030CA
:0E00000024CE380E0087A1000FC00FE00F4085
:00000001FF
;PIC18F4550
;CRC=0C74  CREATED="18-ago-18 02:28"
