:04100000D4EF0AF02F
:08100800046ED8CF05F0E0CF23
:1010100006F00001E9CF0CF0EACF07F0E1CF08F0CD
:10102000E2CF09F0D9CF0AF0DACF0BF0F3CF12F00C
:10103000F4CF13F0FACF14F000C00EF001C00FF09F
:1010400002C010F003C011F0F2AA2AEF08F0F2B4C7
:1010500090EF09F00EC000F00FC001F010C002F0D8
:1010600011C003F00CC0E9FF07C0EAFF078E08C0FB
:10107000E1FF09C0E2FF0AC0D9FF0BC0DAFF12C0CE
:10108000F3FF13C0F4FF14C0FAFF045006C0E0FFE2
:1010900005C0D8FF1000F2CF0DF0F29EF76AB00F36
:1010A000F66E100EF7220900F5500DBEF28E1200FA
:1010B000280C010620202020202020202020202075
:1010C000202020200000010E3E5E0CE3EA6A3E0E66
:1010D000E96EEF5007E0020E006E002EFED700D042
:1010E000EF2EF9D712003FB002D08C9801D08C8837
:1010F00095983FB202D08C9A01D08C8A959A3FB4D1
:1011000002D08C9C01D08C8C959C3FB602D08C9EDA
:1011100001D08C8E959E95968C8695968C96120015
:1011200095948C943C5202E18C9401D08C849594DB
:10113000640E3E6EC8DF95968C963D383E6E0F0E5F
:101140003E163EC03FF0CFDF3D500F0B3E6E3F6E70
:10115000CADF1200392C01D003D0400E3A6E01D004
:101160003A6A010E385C3A263A5080093B6E3C6A76
:101170003D6ED6DF1200EA6A380EE96EEF500EE0DF
:101180000F0E016E006A002EFED7012EFBD78F0EC8
:10119000006E002EFED70000EF2EF2D7120037505F
:1011A0000C0A07E0060A0DE0070A0BE0050A0FE04B
:1011B00013D03C6A010E3D6EB3DF020E386EDBDFEA
:1011C00010D0010E386E020E396EC4DF0AD03C6AB0
:1011D000100E3D6EA5DF05D0010E3C6E37C03DF010
:1011E0009FDF12000900F5520CE0F6CF2EF0F7CF8A
:1011F0002FF0F5CF37F0D3DF2EC0F6FF2FC0F7FF6B
:10120000F1D71200010E386E396EA4DFB40EF66EFF
:10121000100EF76EE7DF010E386E020E396E9ADFA0
:10122000B40EF66E100EF76EDDDFCFEF09F0EACFE9
:1012300036F0E9CF35F02FAE08D0358E35A8352AF7
:101240002E1E2F1E2E2AD8B42F2A2F38F009316EC9
:101250003126E20F326E320F346E2F500F0B3226D2
:1012600032263426E90F336E332633262E380F0B01
:101270003326342633363436341E34362E500F0B94
:1012800034263136070E306E0A0E33063426FDE35F
:1012900032063326FDE331063226FDE330063126E1
:1012A000FDE3EA6A300EE96E070E3514359CED5207
:1012B000351407E135B8EE5235B803D0200E006E74
:1012C00020D0E926000EEA22E950340803E1EA5270
:1012D00001E1358CEF50006E08E135BC06D035B821
:1012E0001BD035B602D0200E0BD035AE06D02D0E59
:1012F000006EED50359C359E04D035863598300E05
:101300000026EACF2FF0E9CF2EF000C037F047DFFC
:101310002FC0EAFF2EC0E9FFEE5035ACD5D7120042
:10132000172C7AD0222C08D0C282C2B2FED7C3CFEB
:1013300018F0C4CF19F01ED02250020808E1C28272
:10134000C2B2FED7C3CF1AF0C4CF1BF013D02250C5
:10135000030808E1C282C2B2FED7C3CF1CF0C4CFDB
:101360001DF008D0226AC282C2B2FED7C3CF1EF0DF
:10137000C4CF1FF0010E22242E6E2E34006E0036D4
:10138000FC0E0016C250C30B0010C26E2050D008D5
:101390003FE1215007083CE1216A206A33D7010E62
:1013A000386E396ED7DE1E0EF66E140EF76E1ADF2B
:1013B0000A0EE96E19C02FF018C02EF038DF220E89
:1013C000F66E140EF76E0EDF0A0EE96E1BC02FF0DC
:1013D0001AC02EF02CDF010E386E020E396EBADE06
:1013E000280EF66E140EF76EFDDE0A0EE96E1DC0B5
:1013F0002FF01CC02EF01BDF2C0EF66E140EF76EB5
:10140000F1DE0A0EE96E1FC02FF01EC02EF00FDFB6
:10141000202AD8B4212A222AF2942AEF08F0313A5D
:10142000200020323A200000333A200020343A20B5
:10143000000020496E696369616C697A616E646F4E
:1014400000004672656E7465000095988C98959AB8
:101450008C9A959C8C9C959E8C9E95948C9495963C
:101460008C96166AF2BE168EF29E0F0E386E83DED2
:1014700016BEF28E010E236E2350030814E3166A83
:10148000F2BE168EF29E030E3F6E2DDE16BEF28E5B
:10149000166AF2BE168EF29E050E386E6CDE16BE11
:1014A000F28E232AE9D7166AF2BE168EF29E020E3B
:1014B0003F6E19DE16BEF28E236A2350030814E332
:1014C000036A2350F2CF24F0F29EE5DD24BEF28EB3
:1014D000246E166AF2BE168EF29E3C6A3D6E20DEC7
:1014E00016BEF28E232AE9D7C2EF0AF0000E0609D3
:1014F000CA6EFF0ECB6E94948B940C0EBD6EB76AC1
:10150000B66A94928B92BA6EC3EF0AF024C002F0CE
:1015100023C001F00232013202320132023201C034
:10152000BEFF02320230300B006EBD50CF0B0010F8
:10153000BD6E24C002F023C001F00232013202323B
:101540000132023201C0BBFF02320230300B006EAA
:10155000BA50CF0B0010BA6EC8EF0AF0010E176E2A
:10156000226EC150C00B0B09C16EC050C00B0409E4
:10157000C06EC08EC280C00ED56ED76AD66AF28A9F
:10158000F21263D7B3D7030E246E840E236EBED738
:10159000DEEF0AF08D8496948B9094908C909590C9
:1015A0008C8295921BEF0BF0F86AD09E078EC1508B
:1015B000C00B0F09C16E070EB46ED0D7166AF2BE0B
:1015C000168EF29E010E386E396EC4DD16BEF28E96
:1015D000320EF66E140EF76E166AF2BE168EF29E7C
:1015E00001DE16BEF28E040E236E166AF2BE168E51
:1015F000F29EFA0E386EBFDD16BEF28E232EF5D7A0
:10160000928880B818D0010E176E166AF2BE168E38
:10161000F29E010E386E396E9DDD16BEF28E420EC0
:10162000F66E140EF76E166AF2BE168EF29EDADDB4
:1016300016BEF28EAFD7928A80BA01D0176AE0D771
:021640000300A5
:020000040030CA
:0E00000024CE380E0087A1000FC00FE00F4085
:00000001FF
;PIC18F4550
;CRC=C516  CREATED="23-ago-18 22:19"
