:0410000042EF0FF0BC
:08100800046ED8CF05F0E0CF23
:1010100006F00001E9CF0CF0EACF07F0E1CF08F0CD
:10102000E2CF09F0D9CF0AF0DACF0BF0F3CF12F00C
:10103000F4CF13F0FACF14F000C00EF001C00FF09F
:1010400002C010F003C011F0F2AA2AEF08F0F2B4C7
:1010500096EF08F00EC000F00FC001F010C002F0D3
:1010600011C003F00CC0E9FF07C0EAFF078E08C0FB
:10107000E1FF09C0E2FF0AC0D9FF0BC0DAFF12C0CE
:10108000F3FF13C0F4FF14C0FAFF045006C0E0FFE2
:1010900005C0D8FF1000F2CF0DF0F29EF76AB00F36
:1010A000F66E100EF7220900F5500DBEF28E1200FA
:1010B000280C0106457374612061206469726569BA
:1010C00074610000457374612061206573717565FA
:1010D00072646100536520706572646575004573C4
:1010E00074612061206469726569746100004573F0
:1010F0007461206120657371756572646100536568
:10110000207065726465750049C01BF048C01AF014
:101110004BC01DF04AC01CF04DC01FF04CC01EF06B
:101120004FC021F04EC020F0EFEF08F0000E016E2E
:10113000C250C30B0110C26E270E006E002EFED7E8
:1011400000D0C282C2B2FED7C3CF1AF0C4CF1BF008
:10115000040E016EC250C30B0110C26E270E006E4A
:10116000002EFED700D0C282C2B2FED7C3CF1CF081
:10117000C4CF1DF0080E016EC250C30B0110C26E29
:10118000270E006E002EFED700D0C282C2B2FED75C
:10119000C3CF1EF0C4CF1FF00C0E016EC250C30BA4
:1011A0000110C26E270E006E002EFED700D0C28244
:1011B000C2B2FED7C3CF20F0C4CF21F01BC049F08C
:1011C0001AC048F01DC04BF01CC04AF01FC04DF0C3
:1011D0001EC04CF021C04FF020C04EF095D72350D8
:1011E000D00808E12450070805E1246A236A275241
:1011F00001E02706232AD8B4242AF2942AEF08F023
:1012000020496E696369616C697A616E646F000080
:1012100020643A202564000020633A202564000001
:10122000EA6A370EE96EEF500EE00F0E016E006AAB
:10123000002EFED7012EFBD78F0E006E002EFED79C
:101240000000EF2EF2D712003EB002D08C9801D0F1
:101250008C8895983EB202D08C9A01D08C8A959A4F
:101260003EB402D08C9C01D08C8C959C3EB602D0B2
:101270008C9E01D08C8E959E95968C8695968C969C
:101280001200010E3D5E0CE3EA6A3D0EE96EEF507E
:1012900007E0020E006E002EFED700D0EF2EF9D729
:1012A0005DEF09F095948C943B5202E18C9401D04F
:1012B0008C849594640E3D6EE4D795968C963C385C
:1012C0003D6E0F0E3D163DC03EF0BEDF3C500F0B95
:1012D0003D6E3E6EB9DF120095988C98959A8C9A67
:1012E000959C8C9C959E8C9E95948C9495968C96B2
:1012F0000F0E376E95DF010E286E2850030808E3A5
:10130000030E3E6EA1DF050E376E8ADF282AF5D761
:10131000020E3E6E99DF286A285003080EE3036A26
:101320002850F2CF29F0F29EB6DE29BEF28E296E49
:101330003B6A3C6EB7DF282AEFD7C3EF09F0000EF7
:101340000609CA6EFF0ECB6E94948B940C0EBD6E84
:10135000B76AB66A94928B92BA6EC4EF09F0010E26
:10136000256E226AC150C00B0B09C16EC050C00B64
:101370000409C06EC08EC280C00ED56ED76AD66A10
:10138000F28AF212A9D7DBD758EF0FF0382C01D030
:1013900003D0400E396E01D0396A010E375C392610
:1013A000395080093A6E3B6A3C6E7CDF1200365041
:1013B0000C0A07E0060A0DE0070A0BE0050A0FE039
:1013C00013D03B6A010E3C6E6DDF020E376E28DFD4
:1013D00010D0010E376E020E386ED8DF0AD03B6A8D
:1013E000100E3C6E5FDF05D0010E3B6E36C03CF048
:1013F00059DF12000900F5520CE0F6CF34F0F7CFB8
:1014000035F0F5CF36F0D3DF34C0F6FF35C0F7FF47
:10141000F1D712000C0E366ECADF76EF0FF009001E
:10142000F6CF29F0F7CF2AF0F5CF36F0C0DF29C08C
:10143000F6FF2AC0F7FF282EF2D712002F50016ABC
:101440002E5C03E22EC000F00CD0006A080E306E55
:101450002E3600362F50005CD8B0006E0136302E8C
:10146000F7D71200200E29A8300E2A6E28C000F0EF
:1014700028AE08D0001E002A00C028F02D0E2A6ECB
:10148000298E2980015028C02EF0640E2F6ED6DFE1
:1014900000C028F0300E01242B6E28C02EF00A0E5A
:1014A0002F6ECCDF300E00242D6E300E01242C6EFA
:1014B0002AC000F0300E2B5C04E0298229BE29846A
:1014C00012D02AC02BF0200E2A6E300E2C5C04E0C5
:1014D000298029BE298207D0D8A4298004E12BC005
:1014E0002CF0200E2B6E29B405D029B206D029B0DD
:1014F00007D009D02AC036F05ADF2BC036F057DFAC
:101500002CC036F054DF2DC036F051DF12008E0EA5
:10151000006E39C001F038C002F0036A015209E1DF
:1015200002C001F0026A080E005E015202E1006A88
:1015300008D0D89001BE04D0023601360006F9D793
:10154000019E12003850D8B4A5D0446E3C50D8B497
:10155000A1D0445E05E37F0E4426D8B09BD006D0D0
:10156000810E445ED8A096D0D8B494D044C000F088
:10157000016A026A036A436A39C042F0428E3AC085
:1015800041F03BC040F0190E446E3F50405E0DE20A
:10159000010E415E0AE2425E08E2435E06E2432A31
:1015A000422A412A3F50402628D03E50415E12E256
:1015B000010E425E0FE2435E0DE2432A422A3E5094
:1015C00041263F50402619E3412A17E1422A15E1FE
:1015D000432A13D03D508009425E0EE2010E435E65
:1015E0000BE2432A3D50800942263E504126E9E362
:1015F000422AE7E1432AE5D70380442E01D00BD0ED
:10160000D8904036413642364336D89003360236BB
:1016100001364536BAD745A006D0D89001320232FD
:101620000332453202D0000635E045BE1ED0D890C8
:1016300040364136423643363F50405E07E2010EA7
:10164000415E04E2425E02E2435E1AE33E50415EC6
:1016500005E2010E425E02E2435E12E33D50800964
:10166000425E03E2010E435E0BE3032A09E1022A14
:1016700007E1012A05E1002A0DE0013202320332BE
:1016800039C044F03D50441A44AE02D0018E06D019
:10169000019E04D0006A016A026A036A120035C022
:1016A0003CF039503C1A3CAE05D0D894D89035BEA9
:1016B000D8802FD035C03CF038C03DF034503D5E6E
:1016C00006E03CAE26D0D850010AD86E22D039C0F0
:1016D0003DF035503D5E06E03CAE1BD0D850010ACF
:1016E000D86E17D03AC03DF036503D5E06E03CAEB5
:1016F00010D0D850010AD86E0CD03BC03DF0375006
:101700003D5E06E03CAE05D0D850010AD86E01D04F
:10171000D890120035C002F034C001F0023201321C
:1017200002320132023201C0BEFF02320230300BFF
:10173000006EBD50CF0B0010BD6E35C002F034C03E
:1017400001F00232013202320132023201C0BBFF2B
:1017500002320230300B006EBA50CF0B0010BA6E5E
:1017600012008D8496948B9094908C8095908C929E
:10177000959255EF0EF08D9496948B8094908C906A
:1017800095908C82959274EF0EF03450D8B471D04D
:10179000006E3850D8B46DD0002604E3810E0026C8
:1017A00068E204D07F0E005E64E363E035C03CF085
:1017B00039503C1A358E398E37503B02F4CF3EF00B
:1017C00036503A02F4CF03F0F3CF3DF03B02F35032
:1017D0003E26F4503D22000E032237503A02F350C9
:1017E0003E26F4503D22000E026A032202223550AA
:1017F0003B02F3503D26F4500322000E02223550E6
:101800003A02F3500326F4500222000E016A01222C
:1018100037503902F3503D26F4500322000E0222C5
:10182000012236503902F3500326F4500222000EF2
:10183000012235503902F3500226F4500122002AC9
:1018400001BE05D03D360336023601360006000ED5
:101850003DAE0AD0032A02220122015005E10250C6
:1018600003E1035001E1002A3CBE018E3CAE019E23
:1018700004D0006A016A026A036A1200800ED8B2BC
:101880003D1A426A436A39C041F03D50411A38500E
:10189000D8B4DCD0406E006E3C50D8B4E0D0405E8E
:1018A000D8B481D03DE33DC046F0468E3EC045F001
:1018B0003FC044F0436AD890463245324432433206
:1018C000402EF8D741AE03D04280DDD04290409008
:1018D0004288EA6A3B0EE96EE9D0429841BE0AD0DE
:1018E00040A013D04632453244324332002AD8B4A5
:1018F000C5D00BD046BE0CD0D890433644364536C2
:1019000046360006D8B4BAD0F5D7428C6BD0429C8C
:1019100039C041F039AE02D0468EA9D0469EA7D03C
:101920003CC040F03CC000F03850405E39C046F04A
:10193000468E3AC045F03BC044F0436AD8904632E8
:10194000453244324332402EF8D741AE03D0428272
:101950009AD042924090428AEA6A3F0EE96EA6D03F
:10196000429A41BE0AD040A013D04632453244329A
:101970004332002AD8B482D00BD046BE0CD0D890C7
:1019800043364436453646360006D8B477D0F5D7C8
:10199000428E28D0429E3DC041F03DAE02D0468EE0
:1019A00066D0469E64D03DC046F0468E3EC045F0AF
:1019B0003FC044F041AE04D0469E428464D042947D
:1019C000436A4090EA6A3B0EE96E70D041BE1CD07B
:1019D00039C041F040A006D046324532443243324D
:1019E000002A4CE043AE0BD0442A09E1452A07E126
:1019F000462A05E1463245324432002A3FE042BCE5
:101A000086D742BEC7D71CD0800E461A46AE04D039
:101A10003AD03DC041F00AD039C041F0465206E10B
:101A2000455204E1445202E1006A21D046BE08D08A
:101A3000D8904336443645364636002EF7D71ED06A
:101A400041AE02D0468E13D0469E11D03CC000F06D
:101A50003DC046F03EC045F03FC044F008D038C01D
:101A600000F039C046F03AC045F03BC044F046C0F3
:101A700001F045C002F044C003F034D0006A016AAE
:101A8000026A036A2FD0436A441E451E461E431E47
:101A9000432A05E1442A03E1452A01E1462A42B0EE
:101AA00015D742B256D742B48AD7B3D7EF5044269F
:101AB00005E3452A03E1462AD8B44080ED52EF50B1
:101AC000452603E3462AD8B44080ED52EF50EFBEDE
:101AD00001D0800A4626D8B0408042B8FED642BA2D
:101AE0003FD774D712008E0E006E3450005E35C0A2
:101AF00002F036C001F0028E005209E0D890025286
:101B000002E1015204E002320132002EF7D735AE75
:101B100005D0011E021E012AD8B4022A120035C0C7
:101B200002F034C001F002320132023201320232DC
:101B300001C0BBFF02320230300B006EBA50CF0B37
:101B40000010BA6EE2EF0EF035C002F034C001F0C2
:101B50000232013202320132023201C0BEFF0232D1
:101B60000230300B006EBD50CF0B0010BD6EE7EFA2
:101B70000EF08D8496948B9094908C9095908C829E
:101B80009592E8EF0EF01DC039F01CC038F0BFDCB4
:101B900003C037F002C036F001C035F000C034F0A9
:101BA0001E501C24016E1F501D20036E01C038F012
:101BB000396EADDC37C03BF036C03AF035C039F095
:101BC00034C038F003C03FF002C03EF001C03DF029
:101BD00000C03CF0B7DC03C02BF002C02AF001C00B
:101BE00029F000C028F01FC039F01EC038F08FDC8B
:101BF00003C037F002C036F001C035F000C034F049
:101C00001E501C24016E1F501D20036E01C038F0B1
:101C1000396E7DDC37C03BF036C03AF035C039F064
:101C200034C038F003C03FF002C03EF001C03DF0C8
:101C300000C03CF087DC03C02FF002C02EF001C0D2
:101C40002DF000C02CF01E501C24346E1F501D209F
:101C5000356E0008D8B0BDD0FF0A04E134509008BA
:101C6000D8B0B7D0010E376E386EC6EC09F019C087
:101C700037F018C036F017C035F016C034F02BC05E
:101C80003BF02AC03AF029C039F028C038F007DD0F
:101C90000DE3B40EF66E100EF76EFAEC09F0030EBB
:101CA000356EB60E346E36DD5CD592D019C037F085
:101CB00018C036F017C035F016C034F02FC03BF016
:101CC0002EC03AF02DC039F02CC038F0E8DC0DE31E
:101CD000C40EF66E100EF76EFAEC09F0030E356EB8
:101CE000B60E346E17DD47D573D02BC037F02AC03F
:101CF00036F029C035F028C034F03B6A3A6A760ED7
:101D0000396E850E386E41DD03C037F002C036F003
:101D100001C035F000C034F0D89203C03BF002C0DF
:101D20003AF001C039F000C038F03F6A3E6A610EF7
:101D30003D6E880E3C6EA2DD03C037F002C036F067
:101D400001C035F000C034F0CEDE02C031F001C079
:101D500030F02FC037F02EC036F02DC035F02CC03B
:101D600034F03B6A3A6A760E396E850E386E0DDDB8
:101D700003C037F002C036F001C035F000C034F0C7
:101D8000D89203C03BF002C03AF001C039F000C065
:101D900038F03F6A3E6A610E3D6E880E3C6E6EDD25
:101DA00003C037F002C036F001C035F000C034F097
:101DB0009ADE02C033F001C032F031C035F030C0DD
:101DC00034F0ADD633C035F032C034F0BDD6D1D604
:101DD0000CD0010E376E020E386EC6EC09F0D40E30
:101DE000F66E100EF76EFAEC09F012001B500008A8
:101DF00021E2FF0A03E11A502B081CE21D500008E3
:101E000019E2FF0A03E11C502B0814E21F500008DE
:101E100011E2FF0A03E11E502B080CE221500008DA
:101E200009E2FF0A03E120502B0804E2010E016ED3
:101E300003D002D0000E016E9DEF0FF01B50010881
:101E40001DE303E11A502B0819E31D50010816E3A6
:101E500003E11C502B0812E31F5001080FE303E1BC
:101E60001E502B080BE32150010808E303E120502A
:101E70002B0804E3010E016E03D002D0000E016EA8
:101E8000A5EF0FF0F86AD09E078E330E196E186E0C
:101E9000176E7E0E166E246A010E236E266A276A5E
:101EA000C150C00B0F09C16E070EB46EAFEF09F041
:101EB000010E376E386EC6EC09F0000EF66E120E8B
:101EC000F76EFAEC09F0320E376E10EC09F09288DA
:101ED00080B802D0010E226E928A80BA01D0226AA6
:101EE000968084B001D0266A0AEF0AF0010E376EA0
:101EF000386EC6EC09F0100EF66E120EF76E040E78
:101F0000286E0FEC0AF026C028F0180E296E32EC6D
:101F10000AF0180EF66E120EF76E040E286E0FEC15
:101F20000AF027C028F0180E296E32EC0AF0222C95
:101F300015D0265206E127DE59D7015201E0262AA4
:101F40000CD0262C06D01FDE79D7015201E0262ABC
:101F500004D0356A346A8AEC0BF008D0356A346AEA
:101F60008AEC0BF0356A346A8AEC0BF0B0D70300C8
:020000040030CA
:0E00000024CE380E0087A1000FC00FE00F4085
:00000001FF
;PIC18F4550
;CRC=1049  CREATED="12-nov-18 00:30"
