:041000003DEF0FF0C1
:08100800046ED8CF05F0E0CF23
:1010100006F00001E9CF0CF0EACF07F0E1CF08F0CD
:10102000E2CF09F0D9CF0AF0DACF0BF0F3CF12F00C
:10103000F4CF13F0FACF14F000C00EF001C00FF09F
:1010400002C010F003C011F0F2AA2AEF08F0F2B4C7
:10105000A2EF0CF00EC000F00FC001F010C002F0C3
:1010600011C003F00CC0E9FF07C0EAFF078E08C0FB
:10107000E1FF09C0E2FF0AC0D9FF0BC0DAFF12C0CE
:10108000F3FF13C0F4FF14C0FAFF045006C0E0FFE2
:1010900005C0D8FF1000F2CF0DF0F29EF76AB00F36
:1010A000F66E100EF7220900F5500DBEF28E1200FA
:1010B000280C0106010E505E0CE3EA6A500EE96E40
:1010C000EF5007E0020E006E002EFED700D0EF2E8C
:1010D000F9D7120051B002D08C9801D08C88959825
:1010E00051B202D08C9A01D08C8A959A51B402D018
:1010F0008C9C01D08C8C959C51B602D08C9E01D0DA
:101100008C8E959E95968C8695968C9612009594CD
:101110008C944E5202E18C9401D08C849594640E90
:10112000506EC8DF95968C964F38506E0F0E501645
:1011300050C051F0CFDF4F500F0B506E516ECADFD1
:101140001200EA6A4A0EE96EEF500EE00F0E016ED1
:10115000006A002EFED7012EFBD78F0E006E002EE8
:10116000FED70000EF2EF2D712004B2C01D003D097
:10117000400E4C6E01D04C6A010E4A5C4C264C501D
:1011800080094D6E4E6A4F6EC2DF120049500C0A44
:1011900007E0060A0DE0070A0BE0050A0FE013D08E
:1011A0004E6A010E4F6EB3DF020E4A6ECADF10D0D8
:1011B000010E4A6E020E4B6ED8DF0AD04E6A100E38
:1011C0004F6EA5DF05D0010E4E6E49C04FF09FDF78
:1011D00012000C0E496EDADFD3EF0CF00900F55265
:1011E0000CE0F6CF3EF0F7CF3FF0F5CF49F0CEDF81
:1011F0003EC0F6FF3FC0F7FFF1D71200EACF48F03C
:10120000E9CF47F041AE08D0478E47A8472A401E95
:10121000411E402AD8B4412A4138F009436E432682
:10122000E20F446E320F466E41500F0B44264426A7
:101230004626E90F456E4526452640380F0B4526C4
:10124000462645364636461E463640500F0B462645
:101250004336070E426E0A0E45064626FDE3440657
:101260004526FDE343064426FDE342064326FDE30F
:10127000EA6A420EE96E070E4714479CED52471486
:1012800007E147B8EE5247B803D0200E006E20D0D9
:10129000E926000EEA22E950460803E1EA5201E19C
:1012A000478CEF50006E08E147BC06D047B81BD012
:1012B00047B602D0200E0BD047AE06D02D0E006EE2
:1012C000ED50479C479E04D047864798300E002635
:1012D000EACF41F0E9CF40F000C049F057DF41C00C
:1012E000EAFF40C0E9FFEE5047ACD5D712008E0EA2
:1012F000006E43C001F042C002F0036A015209E1EE
:1013000002C001F0026A080E005E015202E1006AAA
:1013100008D0D89001BE04D0023601360006F9D7B5
:10132000019E12004250D8B4A5D04E6E4650D8B49B
:10133000A1D04E5E05E37F0E4E26D8B09BD006D0DE
:10134000810E4E5ED8A096D0D8B494D04EC000F096
:10135000016A026A036A4D6A43C04CF04C8E44C075
:101360004BF045C04AF0190E4E6E49504A5E0DE2F0
:10137000010E4B5E0AE24C5E08E24D5E06E24D2A2B
:101380004C2A4B2A49504A2628D048504B5E12E23C
:10139000010E4C5E0FE24D5E0DE24D2A4C2A485084
:1013A0004B2649504A2619E34B2A17E14C2A15E1EE
:1013B0004D2A13D0475080094C5E0EE2010E4D5E5F
:1013C0000BE24D2A475080094C2648504B26E9E352
:1013D0004C2AE7E14D2AE5D703804E2E01D00BD0F1
:1013E000D8904A364B364C364D36D89003360236B6
:1013F00001364F36BAD74FA006D0D890013202320C
:1014000003324F3202D0000635E04FBE1ED0D890D6
:101410004A364B364C364D3649504A5E07E2010E8D
:101420004B5E04E24C5E02E24D5E1AE348504B5EB6
:1014300005E2010E4C5E02E24D5E12E34750800968
:101440004C5E03E2010E4D5E0BE3032A09E1022A22
:1014500007E1012A05E1002A0DE0013202320332E0
:1014600043C04EF047504E1A4EAE02D0018E06D009
:10147000019E04D0006A016A026A036A12003E50AB
:10148000D8B471D0006E4250D8B46DD0002604E3B9
:10149000810E002668E204D07F0E005E64E363E004
:1014A0003FC046F04350461A3F8E438E415045029E
:1014B000F4CF48F040504402F4CF03F0F3CF47F0AC
:1014C0004502F3504826F4504722000E03224150B3
:1014D0004402F3504826F4504722000E026A0322C9
:1014E00002223F504502F3504726F4500322000EDB
:1014F00002223F504402F3500326F4500222000E11
:10150000016A012241504302F3504726F45003225E
:10151000000E0222012240504302F3500326F450F1
:101520000222000E01223F504302F3500226F450E3
:101530000122002A01BE05D04736033602360136A5
:101540000006000E47AE0AD0032A022201220150F3
:1015500005E1025003E1035001E1002A46BE018E7D
:1015600046AE019E04D0006A016A026A036A120054
:10157000800ED8B2471A4C6A4D6A43C04BF04750B0
:101580004B1A4250D8B4DCD04A6E006E4650D8B4E4
:10159000E0D04A5ED8B481D03DE347C050F0508ED1
:1015A00048C04FF049C04EF04D6AD89050324F328B
:1015B0004E324D324A2EF8D74BAE03D04C80DDD0A0
:1015C0004C904A904C88EA6A450EE96EE9D04C98F6
:1015D0004BBE0AD04AA013D050324F324E324D3259
:1015E000002AD8B4C5D00BD050BE0CD0D8904D3600
:1015F0004E364F3650360006D8B4BAD0F5D74C8C9C
:101600006BD04C9C43C04BF043AE02D0508EA9D05F
:10161000509EA7D046C04AF046C000F042504A5EF5
:1016200043C050F0508E44C04FF045C04EF04D6A5C
:10163000D89050324F324E324D324A2EF8D74BAE00
:1016400003D04C829AD04C924A904C8AEA6A490E56
:10165000E96EA6D04C9A4BBE0AD04AA013D05032A5
:101660004F324E324D32002AD8B482D00BD050BE09
:101670000CD0D8904D364E364F3650360006D8B482
:1016800077D0F5D74C8E28D04C9E47C04BF047AE54
:1016900002D0508E66D0509E64D047C050F0508E1D
:1016A00048C04FF049C04EF04BAE04D0509E4C8421
:1016B00064D04C944D6A4A90EA6A450EE96E70D047
:1016C0004BBE1CD043C04BF04AA006D050324F3224
:1016D0004E324D32002A4CE04DAE0BD04E2A09E17D
:1016E0004F2A07E1502A05E150324F324E32002A8C
:1016F0003FE04CBC86D74CBEC7D71CD0800E501ADA
:1017000050AE04D03AD047C04BF00AD043C04BF0A3
:10171000505206E14F5204E14E5202E1006A21D0DC
:1017200050BE08D0D8904D364E364F365036002E2B
:10173000F7D71ED04BAE02D0508E13D0509E11D092
:1017400046C000F047C050F048C04FF049C04EF0CE
:1017500008D042C000F043C050F044C04FF045C034
:101760004EF050C001F04FC002F04EC003F034D034
:10177000006A016A026A036A2FD04D6A4E1E4F1E2C
:10178000501E4D1E4D2A05E14E2A03E14F2A01E16C
:10179000502A4CB015D74CB256D74CB48AD7B3D7D1
:1017A000EF504E2605E34F2A03E1502AD8B44A8071
:1017B000ED52EF504F2603E3502AD8B44A80ED5241
:1017C000EF50EFBE01D0800A5026D8B04A804CB806
:1017D000FED64CBA3FD774D712003FC046F04350F4
:1017E000461A46AE05D0D894D8903FBED8802FD0A8
:1017F0003FC046F042C047F03E50475E06E046AE6E
:1018000026D0D850010AD86E22D043C047F03F50AE
:10181000475E06E046AE1BD0D850010AD86E17D0FE
:1018200044C047F04050475E06E046AE10D0D85066
:10183000010AD86E0CD045C047F04150475E06E023
:1018400046AE05D0D850010AD86E01D0D89012000B
:1018500041C002F040C001F00232013202320132D6
:10186000023201C0BEFF02320230300B006EBD50AA
:10187000CF0B0010BD6E120041C002F040C001F05D
:101880000232013202320132023201C0BBFF0232A7
:101890000230300B006EBA50CF0B0010BA6E12003F
:1018A0008E0E006E3E50005E3FC002F040C001F060
:1018B000028E005209E0D890025202E1015204E087
:1018C00002320132002EF7D73FAE05D0011E021EB4
:1018D000012AD8B4022A12000900F6CF41F0F7CF4E
:1018E00042F0F5CF49F052DC41C0F6FF42C0F7FFAD
:1018F000402EF2D712003FC002F03EC001F002328B
:10190000013202320132023201C0BEFF0232023025
:10191000300B006EBD50CF0B0010BD6E3FC002F00B
:101920003EC001F00232013202320132023201C005
:10193000BBFF02320230300B006EBA50CF0B0010EA
:10194000BA6E1200222C08D0C282C2B2FED7C3CF18
:1019500018F0C4CF19F01ED02250020808E1C2824C
:10196000C2B2FED7C3CF1AF0C4CF1BF013D022509F
:10197000030808E1C282C2B2FED7C3CF1CF0C4CFB5
:101980001DF008D0226AC282C2B2FED7C3CF1EF0B9
:10199000C4CF1FF02050D0081EE1215007081BE1E2
:1019A000216A206A16D4FC0EF66E1C0EF76E16DC49
:1019B0000A0EE96E19C041F018C040F01FDC000E9D
:1019C000F66E1D0EF76E0ADC0A0EE96E1BC041F0C2
:1019D0001AC040F013DC202AD8B4212A222A22344B
:1019E000006E0036FC0E0016C250C30B0010C26E13
:1019F000172C7ED119C043F018C042F078DC03C028
:101A000041F002C040F001C03FF000C03EF01A506B
:101A10001824016E1B501920036E01C042F0436E62
:101A200066DC41C045F040C044F03FC043F03EC0DA
:101A300042F003C049F002C048F001C047F000C0C6
:101A400046F070DC03C031F002C030F001C02FF06E
:101A500000C02EF01BC043F01AC042F048DC03C0A7
:101A600041F002C040F001C03FF000C03EF01A500B
:101A70001824016E1B501920036E01C042F0436E02
:101A800036DC41C045F040C044F03FC043F03EC0AA
:101A900042F003C049F002C048F001C047F000C066
:101AA00046F040DC03C035F002C034F001C033F032
:101AB00000C032F031C041F030C040F02FC03FF0E4
:101AC0002EC03EF0456A446A760E436E860E426E24
:101AD000D6DC03C041F002C040F001C03FF000C0BE
:101AE0003EF0D89203C045F002C044F001C043F07C
:101AF00000C042F0496A400E486E420E476E880EA2
:101B0000466E36DD03C039F002C038F001C037F050
:101B100000C036F035C041F034C040F033C03FF073
:101B200032C03EF0456A446A760E436E860E426EBF
:101B3000A6DC03C041F002C040F001C03FF000C08D
:101B40003EF0D89203C045F002C044F001C043F01B
:101B500000C042F0496A400E486E420E476E880E41
:101B6000466E06DD03C03DF002C03CF001C03BF014
:101B700000C03AF01A5018243E6E1B5019203F6ED8
:101B80000008D8B0A5D0FF0A04E13E502C08D8B018
:101B90009FD0010E4A6E020E4B6EB5EC08F0330E6C
:101BA000416E406E3F6E7E0E3E6E31C045F030C0DD
:101BB00044F02FC043F02EC042F00FDE0EE3060EBD
:101BC000F66E1D0EF76EEEEC08F0030E416E4068E7
:101BD0003FDE416A406A50DE7AD0330E416E406E7D
:101BE0003F6E7E0E3E6E35C045F034C044F033C0CB
:101BF00043F032C042F0F1DD0EE3160EF66E1D0E1C
:101C0000F76EEEEC08F0416A406A22DE030E416E88
:101C1000406832DE5CD039C041F038C040F037C097
:101C20003FF036C03EF03CDE02C03FF001C03EF067
:101C3000260EF66E1D0EF76E040E406E4DDE020E81
:101C4000E96E3FC041F03EC040F0FEEC08F03DC000
:101C500041F03CC040F03BC03FF03AC03EF020DED7
:101C600002C03FF001C03EF0300EF66E1D0EF76E62
:101C7000040E406E31DE020EE96E3FC041F03EC000
:101C800040F0FEEC08F039C041F038C040F037C0F9
:101C90003FF036C03EF004DE02C03FF001C03EF02F
:101CA00002C041F001C040F0E7DD3DC041F03CC062
:101CB00040F03BC03FF03AC03EF0F2DD02C03FF0E2
:101CC00001C03EF002C041F001C040F0C1DD0FD0C4
:101CD0003F6A3E6A10DE010E4A6E020E4B6EB5EC94
:101CE00008F03A0EF66E1D0EF76EEEEC08F003D01B
:101CF0003F6A3E6A00DEF2942AEF08F0313A200093
:101D000020323A20000045737461206120646972BA
:101D100065697461000045737461206120657371A9
:101D200075657264610070313A2025346C6400007E
:101D300070323A2025346C6400005365207065725F
:101D40006465750020496E696369616C697A616ECA
:101D5000646F000095988C98959A8C9A959C8C9CB1
:101D6000959E8C9E95948C9495968C96166AF2BE50
:101D7000168EF29E0F0E4A6EA1EC08F016BEF28E81
:101D8000010E236E2350030816E3166AF2BE168E68
:101D9000F29E030E516E6AEC08F016BEF28E166AC1
:101DA000F2BE168EF29E050E4A6EA1EC08F016BE2B
:101DB000F28E232AE7D7166AF2BE168EF29E020E24
:101DC000516E6AEC08F016BEF28E236A23500308A7
:101DD00016E3036A2350F2CF24F0F29E4BEC08F096
:101DE00024BEF28E246E166AF2BE168EF29E4E6AE3
:101DF0004F6E87EC08F016BEF28E232AE7D72FEF3E
:101E00000FF0000E0609CA6EFF0ECB6E94948B94F1
:101E10000C0EBD6EB76AB66A94928B92BA6E30EFB2
:101E20000FF08D8496948B9094908C9095908C82EA
:101E300095923BEF0FF0010E226E176AC150C00B56
:101E40000B09C16EC050C00B0409C06EC08EC280A9
:101E5000C00ED56ED76AD66AF28AF2127BD7D1D776
:101E6000166AF2BE168EF29E030E3F6E3E6843DD8A
:101E700016BEF28ED6D747EF0FF0F86AD09E078EC7
:101E8000C150C00B0F09C16E070EB46ED4D7166ACD
:101E9000F2BE168EF29E010E4A6E4B6EB5EC08F045
:101EA00016BEF28E440EF66E1D0EF76E166AF2BE68
:101EB000168EF29EEEEC08F016BEF28E040E236E25
:101EC000166AF2BE168EF29EFA0E4A6EA1EC08F069
:101ED00016BEF28E232EF4D7928880B802D0010E5F
:0E1EE000176E928A80BA01D0176AF6D70300F7
:020000040030CA
:0E00000024CE380E0087A1000FC00FE00F4085
:00000001FF
;PIC18F4550
;CRC=228B  CREATED="26-ago-18 22:28"
