:0410000040EF11F0BC
:08100800046ED8CF05F0E0CF23
:1010100006F00001E9CF0CF0EACF07F0E1CF08F0CD
:10102000E2CF09F0D9CF0AF0DACF0BF0F3CF12F00C
:10103000F4CF13F0FACF14F000C00EF001C00FF09F
:1010400002C010F003C011F0F2AA2AEF08F0F2B4C7
:1010500066EF09F00EC000F00FC001F010C002F002
:1010600011C003F00CC0E9FF07C0EAFF078E08C0FB
:10107000E1FF09C0E2FF0AC0D9FF0BC0DAFF12C0CE
:10108000F3FF13C0F4FF14C0FAFF045006C0E0FFE2
:1010900005C0D8FF1000F2CF0DF0F29EF76AB00F36
:1010A000F66E100EF7220900F5500DBEF28E1200FA
:1010B000280C0106010E565E0CE3EA6A560EE96E34
:1010C000EF5007E0020E006E002EFED700D0EF2E8C
:1010D000F9D7120057B002D08C9801D08C8895981F
:1010E00057B202D08C9A01D08C8A959A57B402D00C
:1010F0008C9C01D08C8C959C57B602D08C9E01D0D4
:101100008C8E959E95968C8695968C9612009594CD
:101110008C94545202E18C9401D08C849594640E8A
:10112000566EC8DF95968C965538566E0F0E56162D
:1011300056C057F0CFDF55500F0B566E576ECADFB3
:101140001200EA6A500EE96EEF500EE00F0E016ECB
:10115000006A002EFED7012EFBD78F0E006E002EE8
:10116000FED70000EF2EF2D71200512C01D003D091
:10117000400E526E01D0526A010E505C52265250FF
:101180008009536E546A556EC2DF12004F500C0A2C
:1011900007E0060A0DE0070A0BE0050A0FE013D08E
:1011A000546A010E556EB3DF020E506ECADF10D0C6
:1011B000010E506E020E516ED8DF0AD0546A100E26
:1011C000556EA5DF05D0010E546E4FC055F09FDF60
:1011D00012000C0E4F6EDADF98EF09F00900F6CF1F
:1011E0004AF0F7CF4BF0F5CF4FF0D0DF4AC0F6FF13
:1011F0004BC0F7FF492EF2D712005050016A4F5CE6
:1012000003E24FC000F00CD0006A080E516E4F365A
:1012100000365050005CD8B0006E0136512EF7D722
:101220001200200E4AA8300E4B6E49C000F049AEA5
:1012300008D0001E002A00C049F02D0E4B6E4A8EC9
:101240004A80015049C04FF0640E506ED6DF00C096
:1012500049F0300E01244C6E49C04FF00A0E506E1A
:10126000CCDF300E00244E6E300E01244D6E4BC08C
:1012700000F0300E4C5C04E04A824ABE4A8412D030
:101280004BC04CF0200E4B6E300E4D5C04E04A809B
:101290004ABE4A8207D0D8A44A8004E14CC04DF02F
:1012A000200E4C6E4AB405D04AB206D04AB007D0E0
:1012B00009D04BC04FF06ADF4CC04FF067DF4DC024
:1012C0004FF064DF4EC04FF061DF1200225208E1A0
:1012D000C282C2B2FED7C3CF18F0C4CF19F01FD05C
:1012E000222C08D0C282C2B2FED7C3CF1AF0C4CF1C
:1012F0001BF015D02250020808E1C282C2B2FED70C
:10130000C3CF1CF0C4CF1DF00AD02250030807E160
:10131000C282C2B2FED7C3CF1EF0C4CF1FF020508E
:10132000D00825E12150070822E1216A206A51D71F
:10133000010E506E516E19DF960EF66E130EF76E9B
:10134000040E496E4BDF23C049F0180E4A6E69DF68
:101350009E0EF66E130EF76E040E496E3FDF24C02C
:1013600049F0180E4A6E5DDF245201E02406202A5F
:10137000D8B4212A222A2250040801E2226A223407
:10138000006E0036FC0E0016C250C30B0010C26E79
:10139000F2942AEF08F020643A20256400002063CC
:1013A0003A202564000020496E696369616C697A9E
:1013B000616E646F000046696D20646F2070726F0B
:1013C0006772616D61646F004573746120612064B0
:1013D00069726569746100004573746120612065FC
:1013E0007371756572646100536520706572646520
:1013F0007500457374612061206469726569746168
:1014000000004573746120612065737175657264B5
:1014100061005365207065726465750095988C98BD
:10142000959A8C9A959C8C9C959E8C9E95948C9468
:1014300095968C96166AF2BE168EF29E0F0E506E20
:1014400080DE16BEF28E010E296E2950030814E3C9
:10145000166AF2BE168EF29E030E576E3BDE16BE65
:10146000F28E166AF2BE168EF29E050E506E69DE80
:1014700016BEF28E292AE9D7166AF2BE168EF29EA1
:10148000020E576E27DE16BEF28E296A2950030817
:1014900014E3036A2950F2CF2AF0F29EFCDD2ABE43
:1014A000F28E2A6E166AF2BE168EF29E546A556E3F
:1014B0002EDE16BEF28E292AE9D783EF0AF0000E3F
:1014C0000609CA6EFF0ECB6E94948B940C0EBD6E03
:1014D000B76AB66A94928B92BA6E84EF0AF0010EE4
:1014E000226E176AC150C00B0B09C16EC050C00BF1
:1014F0000409C06EC08EC280C00ED56ED76AD66A8F
:10150000F28AF2128BD7DBD756EF11F00900F552B1
:1015100012E0F6CF35F0F7CF36F0166AF2BE168E2F
:10152000F29EF5CF4FF032DE16BEF28E35C0F6FFDA
:1015300036C0F7FFEBD712008E0E006E3AC001F0F6
:1015400039C002F0036A015209E102C001F0026AE7
:10155000080E005E015202E1006A08D0D89001BE78
:1015600004D0023601360006F9D7019E1200395028
:10157000D8B4A5D0456E3D50D8B4A1D0455E05E3A2
:101580007F0E4526D8B09BD006D0810E455ED8A0F0
:1015900096D0D8B494D045C000F0016A026A036ABC
:1015A000446A3AC043F0438E3BC042F03CC041F035
:1015B000190E456E4050415E0DE2010E425E0AE298
:1015C000435E08E2445E06E2442A432A422A40502F
:1015D000412628D03F50425E12E2010E435E0FE2E8
:1015E000445E0DE2442A432A3F50422640504126A1
:1015F00019E3422A17E1432A15E1442A13D03E5049
:101600008009435E0EE2010E445E0BE2442A3E5026
:10161000800943263F504226E9E3432AE7E1442A72
:10162000E5D70380452E01D00BD0D8904136423605
:1016300043364436D8900336023601364636BAD79A
:1016400046A006D0D890013202320332463202D090
:10165000000635E046BE1ED0D890413642364336AD
:1016600044364050415E07E2010E425E04E2435EB2
:1016700002E2445E1AE33F50425E05E2010E435E21
:1016800002E2445E12E33E508009435E03E2010E33
:10169000445E0BE3032A09E1022A07E1012A05E17E
:1016A000002A0DE00132023203323AC045F03E50CA
:1016B000451A45AE02D0018E06D0019E04D0006AC4
:1016C000016A026A036A120036C03DF03A503D1AC0
:1016D0003DAE05D0D894D89036BED8802FD036C035
:1016E0003DF039C03EF035503E5E06E03DAE26D0BE
:1016F000D850010AD86E22D03AC03EF036503E5E35
:1017000006E03DAE1BD0D850010AD86E17D03BC0C2
:101710003EF037503E5E06E03DAE10D0D850010A94
:10172000D86E0CD03CC03EF038503E5E06E03DAE78
:1017300005D0D850010AD86E01D0D890120036C01A
:1017400002F035C001F002320132023201320232BF
:1017500001C0BEFF02320230300B006EBD50CF0B15
:101760000010BD6E36C002F035C001F00232013209
:1017700002320132023201C0BBFF02320230300BB2
:10178000006EBA50CF0B0010BA6E12008D84969482
:101790008B9094908C8095908C92959212008D9461
:1017A00096948B8094908C9095908C829592120058
:1017B0003550D8B471D0006E3950D8B46DD00026F1
:1017C00004E3810E002668E204D07F0E005E64E32D
:1017D00063E036C03DF03A503D1A368E3A8E3850AE
:1017E0003C02F4CF3FF037503B02F4CF03F0F3CF8D
:1017F0003EF03C02F3503F26F4503E22000E0322FE
:1018000038503B02F3503F26F4503E22000E026A4D
:101810000322022236503C02F3503E26F4500322AB
:10182000000E022236503B02F3500326F4500222EF
:10183000000E016A012238503A02F3503E26F4505D
:101840000322000E0222012237503A02F3500326EF
:10185000F4500222000E012236503A02F3500226C2
:10186000F4500122002A01BE05D03E36033602366E
:1018700001360006000E3EAE0AD0032A02220122E3
:10188000015005E1025003E1035001E1002A3DBE91
:10189000018E3DAE019E04D0006A016A026A036AAD
:1018A0001200800ED8B23E1A436A446A3AC042F02F
:1018B0003E50421A3950D8B4DCD0416E006E3D50D3
:1018C000D8B4E0D0415ED8B481D03DE33EC047F00B
:1018D000478E3FC046F040C045F0446AD89047323A
:1018E000463245324432412EF8D742AE03D04380CF
:1018F000DDD0439041904388EA6A3C0EE96EE9D01E
:10190000439842BE0AD041A013D0473246324532F6
:101910004432002AD8B4C5D00BD047BE0CD0D890E2
:1019200044364536463647360006D8B4BAD0F5D7E1
:10193000438C6BD0439C3AC042F03AAE02D0478E03
:10194000A9D0479EA7D03DC041F03DC000F039501E
:10195000415E3AC047F0478E3BC046F03CC045F080
:10196000446AD8904732463245324432412EF8D745
:1019700042AE03D043829AD043924190438AEA6AAE
:10198000400EE96EA6D0439A42BE0AD041A013D0C1
:101990004732463245324432002AD8B482D00BD086
:1019A00047BE0CD0D89044364536463647360006FA
:1019B000D8B477D0F5D7438E28D0439E3EC042F0AE
:1019C0003EAE02D0478E66D0479E64D03EC047F000
:1019D000478E3FC046F040C045F042AE04D0479E1F
:1019E000438464D04394446A4190EA6A3C0EE96EB1
:1019F00070D042BE1CD03AC042F041A006D047325F
:101A0000463245324432002A4CE044AE0BD0452ADF
:101A100009E1462A07E1472A05E1473246324532C5
:101A2000002A3FE043BC86D743BEC7D71CD0800EF8
:101A3000471A47AE04D03AD03EC042F00AD03AC06E
:101A400042F0475206E1465204E1455202E1006A83
:101A500021D047BE08D0D890443645364636473662
:101A6000002EF7D71ED042AE02D0478E13D0479E2D
:101A700011D03DC000F03EC047F03FC046F040C02E
:101A800045F008D039C000F03AC047F03BC046F0FE
:101A90003CC045F047C001F046C002F045C003F02D
:101AA00034D0006A016A026A036A2FD0446A451E74
:101AB000461E471E441E442A05E1452A03E1462AE4
:101AC00001E1472A43B015D743B256D743B48AD76A
:101AD000B3D7EF50452605E3462A03E1472AD8B499
:101AE0004180ED52EF50462603E3472AD8B44180A7
:101AF000ED52EF50EFBE01D0800A4726D8B04180AA
:101B000043B8FED643BA3FD774D712008E0E006E8C
:101B10003550005E36C002F037C001F0028E005230
:101B200009E0D890025202E1015204E0023201328F
:101B3000002EF7D736AE05D0011E021E012AD8B4FA
:101B4000022A120036C002F035C001F00232013222
:101B500002320132023201C0BBFF02320230300BCE
:101B6000006EBA50CF0B0010BA6E120036C002F0F1
:101B700035C001F00232013202320132023201C0BC
:101B8000BEFF02320230300B006EBD50CF0B001092
:101B9000BD6E12008D8496948B9094908C9095904D
:101BA0008C82959212001BC03AF01AC039F0C4DC46
:101BB00003C038F002C037F001C036F000C035F085
:101BC0001C501A24016E1D501B20036E01C039F0F9
:101BD0003A6EB2DC38C03CF037C03BF036C03AF069
:101BE00035C039F003C040F002C03FF001C03EF004
:101BF00000C03DF0BCDC03C02CF002C02BF001C0E3
:101C00002AF000C029F01DC03AF01CC039F094DC65
:101C100003C038F002C037F001C036F000C035F024
:101C20001C501A24016E1D501B20036E01C039F098
:101C30003A6E82DC38C03CF037C03BF036C03AF038
:101C400035C039F003C040F002C03FF001C03EF0A3
:101C500000C03DF08CDC03C030F002C02FF001C0AA
:101C60002EF000C02DF01C501A24356E1D501B2084
:101C7000366E0008D8B0C3D0FF0A04E13550900892
:101C8000D8B0BDD0166AF2BE168EF29E010E506E0E
:101C9000516EB5EC08F016BEF28E28C038F027C0A1
:101CA00037F026C036F025C035F02CC03CF02BC0F4
:101CB0003BF02AC03AF029C039F006DD0CE3C80E2B
:101CC000F66E130EF76E22DC030E366EB60E356E10
:101CD00036DD5CDD93D028C038F027C037F026C051
:101CE00036F025C035F030C03CF02FC03BF02EC0A0
:101CF0003AF02DC039F0E8DC0CE3D80EF66E130E86
:101D0000F76E04DC030E366EB60E356E18DD47DD59
:101D100075D02CC038F02BC037F02AC036F029C05F
:101D200035F03C6A3B6A2D0E3A6E860E396E40DD08
:101D300003C038F002C037F001C036F000C035F003
:101D4000D89203C03CF002C03BF001C03AF000C0A2
:101D500039F0406A800E3F6E540E3E6E880E3D6E26
:101D6000A0DD03C038F002C037F001C036F000C07B
:101D700035F0CCDE02C032F001C031F030C038F0B6
:101D80002FC037F02EC036F02DC035F03C6A3B6ACC
:101D90002D0E3A6E860E396E0BDD03C038F002C090
:101DA00037F001C036F000C035F0D89203C03CF0E7
:101DB00002C03BF001C03AF000C039F0406A800E2A
:101DC0003F6E540E3E6E880E3D6E6BDD03C038F0E4
:101DD00002C037F001C036F000C035F097DE02C017
:101DE00034F001C033F032C036F031C035F0AADE35
:101DF00034C036F033C035F0B9DECCDE12D0166A0E
:101E0000F2BE168EF29E010E506E020E516EB5ECB1
:101E100008F016BEF28EE80EF66E130EF76E86EC24
:101E20000AF012001950000820E2FF0A03E11850DE
:101E30002B081BE21B50000818E2FF0A03E11A50AE
:101E40002B0813E21D50000810E2FF0A03E11C50AA
:101E50002B080BE21F50010808E303E11E502B087A
:101E600004E3010E016E03D002D0000E016E1200D9
:101E70001950000811E2FF0A03E118502B080CE288
:101E80001F50000809E2FF0A03E11E508F0804E218
:101E9000010E016E03D002D0000E016E98EF11F01A
:101EA0001BC03AF01AC039F09CEC0AF003C038F0BD
:101EB00002C037F001C036F000C035F01C501A24C3
:101EC000016E1D501B20036E01C039F03A6E9CEC70
:101ED0000AF038C03CF037C03BF036C03AF035C0AD
:101EE00039F003C040F002C03FF001C03EF000C036
:101EF0003DF0B7EC0AF003C02CF002C02BF001C09B
:101F00002AF000C029F01DC03AF01CC039F09CEC4A
:101F10000AF003C038F002C037F001C036F000C04C
:101F200035F01C501A24016E1D501B20036E01C099
:101F300039F03A6E9CEC0AF038C03CF037C03BF008
:101F400036C03AF035C039F003C040F002C03FF06F
:101F500001C03EF000C03DF0B7EC0AF003C030F025
:101F600002C02FF001C02EF000C02DF01C501A242A
:101F7000356E1D501B20366E0108D8A0CDD004E16F
:101F800035509008D8A0C8D0166AF2BE168EF29EC0
:101F9000010E506E516EB5EC08F016BEF28E28C0E0
:101FA00038F027C037F026C036F025C035F030C0F5
:101FB0003CF02FC03BF02EC03AF02DC039F064EC5D
:101FC0000BF00FE3F20EF66E130EF76E86EC0AF0CE
:101FD000030E366EB60E356E9FEC0BF0C6EC0BF0B2
:101FE0009AD028C038F027C037F026C036F025C078
:101FF00035F02CC03CF02BC03BF02AC03AF029C091
:1020000039F064EC0BF00FE3020EF66E140EF76E6F
:1020100086EC0AF0030E366EB60E356E9FEC0BF0B2
:10202000CFEC0BF078D02CC038F02BC037F02AC0A2
:1020300036F029C035F03C6A3B6A2D0E3A6E860EAA
:10204000396ED8EC0BF003C038F002C037F001C095
:1020500036F000C035F0D89203C03CF002C03BF02F
:1020600001C03AF000C039F0406A800E3F6E540E55
:102070003E6E880E3D6E15DC03C038F002C037F0AE
:1020800001C036F000C035F041DD02C032F001C0C1
:1020900031F030C038F02FC037F02EC036F02DC0F0
:1020A00035F03C6A3B6A2D0E3A6E860E396ED8ECDE
:1020B0000BF003C038F002C037F001C036F000C0AA
:1020C00035F0D89203C03CF002C03BF001C03AF0BA
:1020D00000C039F0406A800E3F6E540E3E6E880E8E
:1020E0003D6E51EC0CF003C038F002C037F001C077
:1020F00036F000C035F00ADD02C034F001C033F024
:1021000034C036F033C035F01DDD32C036F031C09A
:1021100035F02CDD3FDD12D0166AF2BE168EF29E2F
:10212000010E506E020E516EB5EC08F016BEF28E26
:10213000120EF66E140EF76E86EC0AF0A4EF11F094
:10214000195001080FE303E118502B080BE31F504F
:10215000010808E303E11E508F0804E3010E016E3D
:1021600003D002D0000E016EA5EF11F01950010846
:102170001DE303E118502B0819E31B50010816E377
:1021800003E11A502B0812E31D5001080FE303E18D
:102190001C502B080BE31F50010808E303E11E50FD
:1021A0002B0804E3010E016E03D002D0000E016E75
:1021B000F7EF11F01B50000811E2FF0A03E11A507B
:1021C0002B080CE21D50000809E2FF0A03E11C5035
:1021D0002B0804E2010E016E03D002D0000E016E46
:1021E00009EF12F01950010820E303E118502B0801
:1021F0001CE31B50000819E2FF0A03E11A502B08E8
:1022000014E21D50000811E2FF0A03E11C502B08E4
:102210000CE21F50000809E2FF0A03E11E502B08E0
:1022200004E2010E016E03D002D0000E016E120016
:102230001950000821E2FF0A03E118502B081CE2A4
:102240001B50000819E2FF0A03E11A502B0814E2A0
:102250001D50000811E2FF0A03E11C502B080CE29C
:102260001F50000809E2FF0A03E11E502B0804E298
:10227000010E016E03D002D0000E016E6DEF12F060
:10228000F86AD09E078E216A010E206E236A246AA6
:10229000330E286E276E266E7E0E256EC150C00B43
:1022A0000F09C16E070EB46E6FEF0AF0166AF2BE28
:1022B000168EF29E010E506E516EB5EC08F016BEF1
:1022C000F28E166AF2BE168EF29E050E506EA1ECCC
:1022D00008F016BEF28EA60EF66E130EF76E86ECA2
:1022E0000AF0040E296E166AF2BE168EF29EFA0EDF
:1022F000506EA1EC08F016BEF28E292EF4D792880B
:1023000080B802D0010E176E928A80BA02D0176A86
:1023100008D1235209E147DC85DD015204E0245253
:1023200002E1232A246AFDD0232C0AD03CDCA0D56C
:10233000015205E0245203E1232A010E246EF1D05C
:10234000235002080AE1ACD5FBD6015205E0245225
:1023500003E1232A020E246EE4D0235003080AE18D
:1023600022DC60DD015205E0245203E1232A050E40
:10237000246ED7D02350040826E115DC53DD01522A
:1023800021E024521FE1030E366EB60E356EA2EC2C
:102390000DF0030E366E840E356EB6EC0DF0C6EC05
:1023A0000BF0020E296E166AF2BE168EF29EFA0E1F
:1023B000506EA1EC08F016BEF28E292EF4D7232A17
:1023C000080E246EAED0235005080BE1D3EC0DF0BF
:1023D00029DD015205E0245203E1232A050E246E73
:1023E000A0D0235006080BE1D3EC0DF0BFD601526C
:1023F00005E0245203E1232A050E246E92D02350D7
:10240000070811E1030E366E660E356E9FEC0BF079
:10241000D1D6015207E0245205E1D3EC0DF0232A76
:10242000050E246E7ED0235008080BE1D3EC0DF08E
:10243000F9DC015205E0245203E1232A020E246E46
:1024400070D0235009080BE1D3EC0DF0CBDE015224
:1024500005E0245203E1232A020E246E62D02350A9
:102460000A080BE1D3EC0DF0BDDE015205E0245269
:1024700003E1232A020E246E54D023500B0827E1D7
:10248000D3EC0DF0CFDC015221E024521FE1030E0A
:10249000366EB60E356EA2EC0DF0030E366E840E5F
:1024A000356EB6EC0DF0C6EC0BF0020E296E166A16
:1024B000F2BE168EF29EFA0E506EA1EC08F016BE19
:1024C000F28E292EF4D7232A070E246E2AD0235009
:1024D0000C080AE1D3EC0DF0ABD6015204E0245213
:1024E00002E1232A246A1DD023500D0816E1366A22
:1024F000356A9FEC0BF0166AF2BE168EF29E010E44
:10250000506E516EB5EC08F016BEF28EB60EF66E39
:10251000130EF76E86EC0AF004D0366A356A9FEC2B
:102520000BF0175208E1366A356A9FEC0BF0366AF9
:0A253000356A9FEC0BF0E3D60300C0
:020000040030CA
:0E00000024CE380E0087A1000FC00FE00F4085
:00000001FF
;PIC18F4550
;CRC=475F  CREATED="29-ago-18 20:37"
